{
  "contractName": "Production",
  "abi": [
    {
      "anonymous": false,
      "inputs": [
        {
          "indexed": false,
          "internalType": "string",
          "name": "_etat",
          "type": "string"
        }
      ],
      "name": "EndDelivery",
      "type": "event"
    },
    {
      "anonymous": false,
      "inputs": [
        {
          "indexed": false,
          "internalType": "string",
          "name": "_etat",
          "type": "string"
        }
      ],
      "name": "OnTrack",
      "type": "event"
    },
    {
      "anonymous": false,
      "inputs": [
        {
          "indexed": false,
          "internalType": "string",
          "name": "_etat",
          "type": "string"
        }
      ],
      "name": "Received",
      "type": "event"
    },
    {
      "anonymous": false,
      "inputs": [
        {
          "indexed": false,
          "internalType": "bytes32",
          "name": "h1",
          "type": "bytes32"
        },
        {
          "indexed": false,
          "internalType": "bytes32",
          "name": "h2",
          "type": "bytes32"
        },
        {
          "indexed": false,
          "internalType": "uint256",
          "name": "ii",
          "type": "uint256"
        }
      ],
      "name": "compare",
      "type": "event"
    },
    {
      "anonymous": false,
      "inputs": [
        {
          "indexed": false,
          "internalType": "uint256",
          "name": "am",
          "type": "uint256"
        },
        {
          "indexed": false,
          "internalType": "string",
          "name": "ty",
          "type": "string"
        },
        {
          "indexed": false,
          "internalType": "string",
          "name": "DoR",
          "type": "string"
        }
      ],
      "name": "order",
      "type": "event"
    },
    {
      "anonymous": false,
      "inputs": [
        {
          "indexed": false,
          "internalType": "string",
          "name": "_etat",
          "type": "string"
        }
      ],
      "name": "ready",
      "type": "event"
    },
    {
      "inputs": [
        {
          "internalType": "uint256",
          "name": "",
          "type": "uint256"
        }
      ],
      "name": "Analyzed",
      "outputs": [
        {
          "internalType": "uint256",
          "name": "DonnerId",
          "type": "uint256"
        },
        {
          "internalType": "string",
          "name": "Typee",
          "type": "string"
        },
        {
          "internalType": "uint256",
          "name": "Amount",
          "type": "uint256"
        },
        {
          "internalType": "string",
          "name": "ExpiryDate",
          "type": "string"
        },
        {
          "internalType": "enum Production.BloodStatus",
          "name": "_status",
          "type": "uint8"
        }
      ],
      "stateMutability": "view",
      "type": "function",
      "constant": true
    },
    {
      "inputs": [
        {
          "internalType": "uint256",
          "name": "",
          "type": "uint256"
        }
      ],
      "name": "OnDelievery",
      "outputs": [
        {
          "internalType": "uint256",
          "name": "DonnerId",
          "type": "uint256"
        },
        {
          "internalType": "string",
          "name": "Typee",
          "type": "string"
        },
        {
          "internalType": "uint256",
          "name": "Amount",
          "type": "uint256"
        },
        {
          "internalType": "string",
          "name": "ExpiryDate",
          "type": "string"
        },
        {
          "internalType": "enum Production.BloodStatus",
          "name": "_status",
          "type": "uint8"
        }
      ],
      "stateMutability": "view",
      "type": "function",
      "constant": true
    },
    {
      "inputs": [
        {
          "internalType": "uint256",
          "name": "",
          "type": "uint256"
        }
      ],
      "name": "ToHospital",
      "outputs": [
        {
          "internalType": "uint256",
          "name": "DonnerId",
          "type": "uint256"
        },
        {
          "internalType": "string",
          "name": "Typee",
          "type": "string"
        },
        {
          "internalType": "uint256",
          "name": "Amount",
          "type": "uint256"
        },
        {
          "internalType": "string",
          "name": "ExpiryDate",
          "type": "string"
        },
        {
          "internalType": "enum Production.BloodStatus",
          "name": "_status",
          "type": "uint8"
        }
      ],
      "stateMutability": "view",
      "type": "function",
      "constant": true
    },
    {
      "inputs": [],
      "name": "getAdress",
      "outputs": [
        {
          "internalType": "address",
          "name": "",
          "type": "address"
        }
      ],
      "stateMutability": "view",
      "type": "function",
      "constant": true
    },
    {
      "inputs": [],
      "name": "getAdresss",
      "outputs": [
        {
          "internalType": "address",
          "name": "",
          "type": "address"
        }
      ],
      "stateMutability": "view",
      "type": "function",
      "constant": true
    },
    {
      "inputs": [
        {
          "internalType": "uint256",
          "name": "",
          "type": "uint256"
        }
      ],
      "name": "transporters",
      "outputs": [
        {
          "internalType": "address",
          "name": "",
          "type": "address"
        }
      ],
      "stateMutability": "view",
      "type": "function",
      "constant": true
    },
    {
      "inputs": [
        {
          "internalType": "uint256",
          "name": "",
          "type": "uint256"
        }
      ],
      "name": "units",
      "outputs": [
        {
          "internalType": "uint256",
          "name": "DonnerId",
          "type": "uint256"
        },
        {
          "internalType": "string",
          "name": "Typee",
          "type": "string"
        },
        {
          "internalType": "uint256",
          "name": "Amount",
          "type": "uint256"
        },
        {
          "internalType": "string",
          "name": "ExpiryDate",
          "type": "string"
        },
        {
          "internalType": "enum Production.BloodStatus",
          "name": "_status",
          "type": "uint8"
        }
      ],
      "stateMutability": "view",
      "type": "function",
      "constant": true
    },
    {
      "inputs": [
        {
          "internalType": "uint256",
          "name": "donner",
          "type": "uint256"
        }
      ],
      "name": "CollectBloodUnit",
      "outputs": [
        {
          "components": [
            {
              "internalType": "uint256",
              "name": "DonnerId",
              "type": "uint256"
            },
            {
              "internalType": "string",
              "name": "Typee",
              "type": "string"
            },
            {
              "internalType": "uint256",
              "name": "Amount",
              "type": "uint256"
            },
            {
              "internalType": "string",
              "name": "ExpiryDate",
              "type": "string"
            },
            {
              "internalType": "enum Production.BloodStatus",
              "name": "_status",
              "type": "uint8"
            }
          ],
          "internalType": "struct Production.BloodUnit",
          "name": "",
          "type": "tuple"
        }
      ],
      "stateMutability": "nonpayable",
      "type": "function"
    },
    {
      "inputs": [
        {
          "internalType": "uint256",
          "name": "_index",
          "type": "uint256"
        }
      ],
      "name": "getiD",
      "outputs": [
        {
          "internalType": "uint256",
          "name": "",
          "type": "uint256"
        }
      ],
      "stateMutability": "view",
      "type": "function",
      "constant": true
    },
    {
      "inputs": [
        {
          "internalType": "uint256",
          "name": "_index",
          "type": "uint256"
        }
      ],
      "name": "getState",
      "outputs": [
        {
          "internalType": "enum Production.BloodStatus",
          "name": "",
          "type": "uint8"
        }
      ],
      "stateMutability": "view",
      "type": "function",
      "constant": true
    },
    {
      "inputs": [
        {
          "internalType": "uint256",
          "name": "_index",
          "type": "uint256"
        }
      ],
      "name": "getStateAnalyzed",
      "outputs": [
        {
          "internalType": "enum Production.BloodStatus",
          "name": "",
          "type": "uint8"
        }
      ],
      "stateMutability": "view",
      "type": "function",
      "constant": true
    },
    {
      "inputs": [
        {
          "internalType": "uint256",
          "name": "_index",
          "type": "uint256"
        }
      ],
      "name": "getStateOnDeliever",
      "outputs": [
        {
          "internalType": "enum Production.BloodStatus",
          "name": "",
          "type": "uint8"
        }
      ],
      "stateMutability": "view",
      "type": "function",
      "constant": true
    },
    {
      "inputs": [
        {
          "internalType": "uint256",
          "name": "_index",
          "type": "uint256"
        }
      ],
      "name": "getStateHospital",
      "outputs": [
        {
          "internalType": "enum Production.BloodStatus",
          "name": "",
          "type": "uint8"
        }
      ],
      "stateMutability": "view",
      "type": "function",
      "constant": true
    },
    {
      "inputs": [
        {
          "internalType": "uint256",
          "name": "_index",
          "type": "uint256"
        }
      ],
      "name": "getStateDonation",
      "outputs": [
        {
          "internalType": "enum Production.BloodStatus",
          "name": "",
          "type": "uint8"
        }
      ],
      "stateMutability": "view",
      "type": "function",
      "constant": true
    },
    {
      "inputs": [
        {
          "internalType": "address",
          "name": "_transporter",
          "type": "address"
        }
      ],
      "name": "AssignTransporter",
      "outputs": [],
      "stateMutability": "nonpayable",
      "type": "function"
    },
    {
      "inputs": [],
      "name": "Start_Delivery",
      "outputs": [],
      "stateMutability": "nonpayable",
      "type": "function"
    },
    {
      "inputs": [],
      "name": "End_Delivery",
      "outputs": [],
      "stateMutability": "nonpayable",
      "type": "function"
    },
    {
      "inputs": [],
      "name": "BloodReceived",
      "outputs": [],
      "stateMutability": "nonpayable",
      "type": "function"
    },
    {
      "inputs": [
        {
          "internalType": "uint256",
          "name": "_donner",
          "type": "uint256"
        },
        {
          "internalType": "uint256",
          "name": "_amount",
          "type": "uint256"
        },
        {
          "internalType": "string",
          "name": "_expiry",
          "type": "string"
        },
        {
          "internalType": "string",
          "name": "_type",
          "type": "string"
        }
      ],
      "name": "CreateBloodUnit",
      "outputs": [],
      "stateMutability": "nonpayable",
      "type": "function"
    },
    {
      "inputs": [
        {
          "internalType": "uint256",
          "name": "_amount",
          "type": "uint256"
        },
        {
          "internalType": "string",
          "name": "_type",
          "type": "string"
        },
        {
          "internalType": "string",
          "name": "_DateofOrder",
          "type": "string"
        }
      ],
      "name": "OrderBlood",
      "outputs": [],
      "stateMutability": "nonpayable",
      "type": "function"
    },
    {
      "inputs": [
        {
          "internalType": "uint256",
          "name": "_amount",
          "type": "uint256"
        },
        {
          "internalType": "string",
          "name": "_date",
          "type": "string"
        },
        {
          "internalType": "string",
          "name": "_type",
          "type": "string"
        }
      ],
      "name": "Approve",
      "outputs": [
        {
          "internalType": "uint256",
          "name": "",
          "type": "uint256"
        }
      ],
      "stateMutability": "nonpayable",
      "type": "function"
    },
    {
      "inputs": [],
      "name": "DelieverToHospital",
      "outputs": [],
      "stateMutability": "nonpayable",
      "type": "function"
    },
    {
      "inputs": [],
      "name": "ArrivedToTheHospital",
      "outputs": [],
      "stateMutability": "nonpayable",
      "type": "function"
    },
    {
      "inputs": [],
      "name": "BloodReceivedInTheHospital",
      "outputs": [],
      "stateMutability": "nonpayable",
      "type": "function"
    },
    {
      "inputs": [
        {
          "internalType": "uint256",
          "name": "_id",
          "type": "uint256"
        }
      ],
      "name": "Donation",
      "outputs": [],
      "stateMutability": "nonpayable",
      "type": "function"
    }
  ],
  "bytecode": "0x60806040526000600455600060065560006008556000600a556000600c5534801561002957600080fd5b50336000806101000a81548173ffffffffffffffffffffffffffffffffffffffff021916908373ffffffffffffffffffffffffffffffffffffffff16021790555033600160006101000a81548173ffffffffffffffffffffffffffffffffffffffff021916908373ffffffffffffffffffffffffffffffffffffffff16021790555061340d806100ba6000396000f3fe608060405234801561001057600080fd5b50600436106101735760003560e01c806377e12154116100de578063be5dbb4311610097578063e26f773411610071578063e26f773414610442578063e5fba6cc14610472578063f950c742146104a6578063fb4c4b3a146104b057610173565b8063be5dbb43146103fe578063c1e1677e14610408578063c33e85ab1461041257610173565b806377e121541461033c578063803933d914610358578063ac3aa1b51461038c578063ae967a6f146103bc578063b11a56b3146103c6578063bcc1ce62146103e257610173565b806342294e601161013057806342294e601461026457806344c9af28146102945780634ad6d3cd146102c45780634e805919146102e05780636b37d362146102ea57806372c232511461030857610173565b8063022bd506146101785780630fd27e91146101ac57806318ea6bb7146101dc57806329c2a877146101e65780632c97c44a1461021657806341b4d3e114610246575b600080fd5b610192600480360381019061018d9190612119565b6104e0565b6040516101a395949392919061225c565b60405180910390f35b6101c660048036038101906101c19190612119565b610633565b6040516101d391906122bd565b60405180910390f35b6101e4610660565b005b61020060048036038101906101fb9190612119565b6108a4565b60405161020d9190612319565b60405180910390f35b610230600480360381019061022b9190612119565b6108e3565b60405161023d91906122bd565b60405180910390f35b61024e610910565b60405161025b9190612319565b60405180910390f35b61027e60048036038101906102799190612119565b61093a565b60405161028b9190612334565b60405180910390f35b6102ae60048036038101906102a99190612119565b61095a565b6040516102bb91906122bd565b60405180910390f35b6102de60048036038101906102d99190612119565b610987565b005b6102e8610a6a565b005b6102f2610b98565b6040516102ff9190612319565b60405180910390f35b610322600480360381019061031d9190612119565b610bc1565b60405161033395949392919061225c565b60405180910390f35b6103566004803603810190610351919061237b565b610d14565b005b610372600480360381019061036d9190612119565b610e3d565b60405161038395949392919061225c565b60405180910390f35b6103a660048036038101906103a19190612119565b610f90565b6040516103b391906122bd565b60405180910390f35b6103c4610fbd565b005b6103e060048036038101906103db91906124dd565b611179565b005b6103fc60048036038101906103f7919061257c565b61125f565b005b6104066112e3565b005b610410611564565b005b61042c60048036038101906104279190612119565b61175f565b60405161043991906122bd565b60405180910390f35b61045c6004803603810190610457919061257c565b61178c565b6040516104699190612334565b60405180910390f35b61048c60048036038101906104879190612119565b6119b4565b60405161049d95949392919061225c565b60405180910390f35b6104ae611b07565b005b6104ca60048036038101906104c59190612119565b611cf3565b6040516104d791906126ec565b60405180910390f35b60096020528060005260406000206000915090508060000154908060010180546105099061273d565b80601f01602080910402602001604051908101604052809291908181526020018280546105359061273d565b80156105825780601f1061055757610100808354040283529160200191610582565b820191906000526020600020905b81548152906001019060200180831161056557829003601f168201915b50505050509080600201549080600301805461059d9061273d565b80601f01602080910402602001604051908101604052809291908181526020018280546105c99061273d565b80156106165780601f106105eb57610100808354040283529160200191610616565b820191906000526020600020905b8154815290600101906020018083116105f957829003601f168201915b5050505050908060040160009054906101000a900460ff16905085565b60006009600083815260200190815260200160002060040160009054906101000a900460ff169050919050565b60005b6008548110156108a15760056009811115610681576106806121e5565b5b6007600083815260200190815260200160002060040160009054906101000a900460ff1660098111156106b7576106b66121e5565b5b0361088e5760005b60038054905081101561088c573373ffffffffffffffffffffffffffffffffffffffff16600382815481106106f7576106f661276e565b5b9060005260206000200160009054906101000a900473ffffffffffffffffffffffffffffffffffffffff1673ffffffffffffffffffffffffffffffffffffffff16036108795760066007600084815260200190815260200160002060040160006101000a81548160ff02191690836009811115610777576107766121e5565b5b02179055506007600083815260200190815260200160002060096000600a54815260200190815260200160002060008201548160000155600182018160010190816107c2919061295f565b5060028201548160020155600382018160030190816107e1919061295f565b506004820160009054906101000a900460ff168160040160006101000a81548160ff0219169083600981111561081a576108196121e5565b5b021790555090505061082b82611edc565b7ffbb1b4e9e7dec27e981d312b01f33e3fd2b2b3e463427e84d7c3a1f5b02bd87c60405161085890612a93565b60405180910390a1600a600081548092919061087390612ae2565b91905055505b808061088490612ae2565b9150506106bf565b505b808061089990612ae2565b915050610663565b50565b600381815481106108b457600080fd5b906000526020600020016000915054906101000a900473ffffffffffffffffffffffffffffffffffffffff1681565b60006005600083815260200190815260200160002060040160009054906101000a900460ff169050919050565b6000600160009054906101000a900473ffffffffffffffffffffffffffffffffffffffff16905090565b600060026000838152602001908152602001600020600001549050919050565b60006002600083815260200190815260200160002060040160009054906101000a900460ff169050919050565b6000805b600c5481111580156109a1575060001515821515145b156109e05782600b600083815260200190815260200160002060000154036109cc57600191506109db565b80806109d790612ae2565b9150505b61098b565b8115610a2a576009600b600083815260200190815260200160002060040160006101000a81548160ff02191690836009811115610a2057610a1f6121e5565b5b0217905550610a65565b6040517f08c379a0000000000000000000000000000000000000000000000000000000008152600401610a5c90612b76565b60405180910390fd5b505050565b60005b600654811015610b8d5760026009811115610a8b57610a8a6121e5565b5b6005600083815260200190815260200160002060040160009054906101000a900460ff166009811115610ac157610ac06121e5565b5b03610b0a5760036005600083815260200190815260200160002060040160006101000a81548160ff02191690836009811115610b0057610aff6121e5565b5b0217905550610b45565b6040517f08c379a0000000000000000000000000000000000000000000000000000000008152600401610b3c90612be2565b60405180910390fd5b7feb7115a99b4ff3975015662e8f8d0434763af973215290ec6d1f8068233ff79f604051610b7290612c4e565b60405180910390a18080610b8590612ae2565b915050610a6d565b506000600681905550565b60008060009054906101000a900473ffffffffffffffffffffffffffffffffffffffff16905090565b6007602052806000526040600020600091509050806000015490806001018054610bea9061273d565b80601f0160208091040260200160405190810160405280929190818152602001828054610c169061273d565b8015610c635780601f10610c3857610100808354040283529160200191610c63565b820191906000526020600020905b815481529060010190602001808311610c4657829003601f168201915b505050505090806002015490806003018054610c7e9061273d565b80601f0160208091040260200160405190810160405280929190818152602001828054610caa9061273d565b8015610cf75780601f10610ccc57610100808354040283529160200191610cf7565b820191906000526020600020905b815481529060010190602001808311610cda57829003601f168201915b5050505050908060040160009054906101000a900460ff16905085565b60008054906101000a900473ffffffffffffffffffffffffffffffffffffffff1673ffffffffffffffffffffffffffffffffffffffff163373ffffffffffffffffffffffffffffffffffffffff1614610da2576040517f08c379a0000000000000000000000000000000000000000000000000000000008152600401610d9990612cba565b60405180910390fd5b6003819080600181540180825580915050600190039060005260206000200160009091909190916101000a81548173ffffffffffffffffffffffffffffffffffffffff021916908373ffffffffffffffffffffffffffffffffffffffff1602179055507f8a473fa15b9468c004693aaa07cbbbe5d513d99723197399a19fbb8a4f63db89604051610e3290612d26565b60405180910390a150565b6005602052806000526040600020600091509050806000015490806001018054610e669061273d565b80601f0160208091040260200160405190810160405280929190818152602001828054610e929061273d565b8015610edf5780601f10610eb457610100808354040283529160200191610edf565b820191906000526020600020905b815481529060010190602001808311610ec257829003601f168201915b505050505090806002015490806003018054610efa9061273d565b80601f0160208091040260200160405190810160405280929190818152602001828054610f269061273d565b8015610f735780601f10610f4857610100808354040283529160200191610f73565b820191906000526020600020905b815481529060010190602001808311610f5657829003601f168201915b5050505050908060040160009054906101000a900460ff16905085565b60006007600083815260200190815260200160002060040160009054906101000a900460ff169050919050565b60005b600a548110156111765760066009811115610fde57610fdd6121e5565b5b6009600083815260200190815260200160002060040160009054906101000a900460ff166009811115611014576110136121e5565b5b036111635760005b600380549050811015611161573373ffffffffffffffffffffffffffffffffffffffff16600382815481106110545761105361276e565b5b9060005260206000200160009054906101000a900473ffffffffffffffffffffffffffffffffffffffff1673ffffffffffffffffffffffffffffffffffffffff16036111135760076009600084815260200190815260200160002060040160006101000a81548160ff021916908360098111156110d4576110d36121e5565b5b02179055507fd231e56c343322f0d3d33b9249d2cf348f94f8fb054cc595f2f8de12bb48b65960405161110690612d92565b60405180910390a161114e565b6040517f08c379a000000000000000000000000000000000000000000000000000000000815260040161114590612e24565b60405180910390fd5b808061115990612ae2565b91505061101c565b505b808061116e90612ae2565b915050610fc0565b50565b60006040518060a00160405280868152602001838152602001858152602001848152602001600460098111156111b2576111b16121e5565b5b8152509050806007600060085481526020019081526020016000206000820151816000015560208201518160010190816111ec9190612e44565b5060408201518160020155606082015181600301908161120c9190612e44565b5060808201518160040160006101000a81548160ff02191690836009811115611238576112376121e5565b5b02179055509050506008600081548092919061125390612ae2565b91905055505050505050565b60008251116112a3576040517f08c379a000000000000000000000000000000000000000000000000000000000815260040161129a90612f62565b60405180910390fd5b7f2ca8bf24c14558a4916d41732bbc32ad47a118ab13ade22e7bd6d055d2d64fff8383836040516112d693929190612f82565b60405180910390a1505050565b60005b60045481116115245760006009811115611303576113026121e5565b5b6002600083815260200190815260200160002060040160009054906101000a900460ff166009811115611339576113386121e5565b5b036114d65760005b6003805490508110156114d0573373ffffffffffffffffffffffffffffffffffffffff16600382815481106113795761137861276e565b5b9060005260206000200160009054906101000a900473ffffffffffffffffffffffffffffffffffffffff1673ffffffffffffffffffffffffffffffffffffffff16036114bd5760016002600084815260200190815260200160002060040160006101000a81548160ff021916908360098111156113f9576113f86121e5565b5b0217905550600260008381526020019081526020016000206005600060065481526020019081526020016000206000820154816000015560018201816001019081611444919061295f565b506002820154816002015560038201816003019081611463919061295f565b506004820160009054906101000a900460ff168160040160006101000a81548160ff0219169083600981111561149c5761149b6121e5565b5b0217905550905050600660008154809291906114b790612ae2565b91905055505b80806114c890612ae2565b915050611341565b50611511565b6040517f08c379a000000000000000000000000000000000000000000000000000000000815260040161150890613039565b60405180910390fd5b808061151c90612ae2565b9150506112e6565b507ffbb1b4e9e7dec27e981d312b01f33e3fd2b2b3e463427e84d7c3a1f5b02bd87c604051611552906130a5565b60405180910390a16000600481905550565b60005b60065481101561175c5760016009811115611585576115846121e5565b5b6005600083815260200190815260200160002060040160009054906101000a900460ff1660098111156115bb576115ba6121e5565b5b0361170e5760005b600380549050811015611708573373ffffffffffffffffffffffffffffffffffffffff16600382815481106115fb576115fa61276e565b5b9060005260206000200160009054906101000a900473ffffffffffffffffffffffffffffffffffffffff1673ffffffffffffffffffffffffffffffffffffffff16036116ba5760026005600084815260200190815260200160002060040160006101000a81548160ff0219169083600981111561167b5761167a6121e5565b5b02179055507fd231e56c343322f0d3d33b9249d2cf348f94f8fb054cc595f2f8de12bb48b6596040516116ad90612d92565b60405180910390a16116f5565b6040517f08c379a00000000000000000000000000000000000000000000000000000000081526004016116ec90613111565b60405180910390fd5b808061170090612ae2565b9150506115c3565b50611749565b6040517f08c379a000000000000000000000000000000000000000000000000000000000815260040161174090612e24565b60405180910390fd5b808061175490612ae2565b915050611567565b50565b6000600b600083815260200190815260200160002060040160009054906101000a900460ff169050919050565b6000806000905060005b600854811080156117a5575081155b156118ee57836040516020016117bb919061316d565b60405160208183030381529060405280519060200120600760008381526020019081526020016000206001016040516020016117f79190613207565b60405160208183030381529060405280519060200120148015611830575085600760008381526020019081526020016000206002015410155b156118da57600191507fdf32908670690790c0cdc194198e1e1b76586f0a602d47d4e7a0ac8d8ad74f5e600760008381526020019081526020016000206001016040516020016118809190613207565b60405160208183030381529060405280519060200120856040516020016118a7919061316d565b60405160208183030381529060405280519060200120836040516118cd93929190613237565b60405180910390a16118e9565b80806118e590612ae2565b9150505b611796565b8115611972577feb7115a99b4ff3975015662e8f8d0434763af973215290ec6d1f8068233ff79f604051611921906132ba565b60405180910390a160056007600083815260200190815260200160002060040160006101000a81548160ff02191690836009811115611963576119626121e5565b5b021790555080925050506119ad565b6040517f08c379a00000000000000000000000000000000000000000000000000000000081526004016119a490613326565b60405180910390fd5b9392505050565b60026020528060005260406000206000915090508060000154908060010180546119dd9061273d565b80601f0160208091040260200160405190810160405280929190818152602001828054611a099061273d565b8015611a565780601f10611a2b57610100808354040283529160200191611a56565b820191906000526020600020905b815481529060010190602001808311611a3957829003601f168201915b505050505090806002015490806003018054611a719061273d565b80601f0160208091040260200160405190810160405280929190818152602001828054611a9d9061273d565b8015611aea5780601f10611abf57610100808354040283529160200191611aea565b820191906000526020600020905b815481529060010190602001808311611acd57829003601f168201915b5050505050908060040160009054906101000a900460ff16905085565b60005b600a54811015611ce85760076009811115611b2857611b276121e5565b5b6009600083815260200190815260200160002060040160009054906101000a900460ff166009811115611b5e57611b5d6121e5565b5b03611c9a5760086009600083815260200190815260200160002060040160006101000a81548160ff02191690836009811115611b9d57611b9c6121e5565b5b021790555060096000828152602001908152602001600020600b6000600c5481526020019081526020016000206000820154816000015560018201816001019081611be8919061295f565b506002820154816002015560038201816003019081611c07919061295f565b506004820160009054906101000a900460ff168160040160006101000a81548160ff02191690836009811115611c4057611c3f6121e5565b5b0217905550905050600c6000815480929190611c5b90612ae2565b91905055507feb7115a99b4ff3975015662e8f8d0434763af973215290ec6d1f8068233ff79f604051611c8d90612c4e565b60405180910390a1611cd5565b6040517f08c379a0000000000000000000000000000000000000000000000000000000008152600401611ccc90612be2565b60405180910390fd5b8080611ce090612ae2565b915050611b0a565b506000600a81905550565b611cfb612031565b60008054906101000a900473ffffffffffffffffffffffffffffffffffffffff1673ffffffffffffffffffffffffffffffffffffffff163373ffffffffffffffffffffffffffffffffffffffff1614611d89576040517f08c379a0000000000000000000000000000000000000000000000000000000008152600401611d8090612cba565b60405180910390fd5b60006040518060a001604052808481526020016040518060400160405280600781526020017f556e6b6e6f776e000000000000000000000000000000000000000000000000008152508152602001600081526020016040518060400160405280600781526020017f756e6b6e6f776e00000000000000000000000000000000000000000000000000815250815260200160006009811115611e2d57611e2c6121e5565b5b815250905080600260006004548152602001908152602001600020600082015181600001556020820151816001019081611e679190612e44565b50604082015181600201556060820151816003019081611e879190612e44565b5060808201518160040160006101000a81548160ff02191690836009811115611eb357611eb26121e5565b5b021790555090505060046000815480929190611ece90612ae2565b919050555080915050919050565b60076000828152602001908152602001600020600080820160009055600182016000611f089190612072565b6002820160009055600382016000611f209190612072565b6004820160006101000a81549060ff0219169055505060008190505b6001600854611f4b9190613346565b8210156120155760076000600183611f63919061337a565b8152602001908152602001600020600760008381526020019081526020016000206000820154816000015560018201816001019081611fa2919061295f565b506002820154816002015560038201816003019081611fc1919061295f565b506004820160009054906101000a900460ff168160040160006101000a81548160ff02191690836009811115611ffa57611ff96121e5565b5b0217905550905050818061200d90612ae2565b925050611f3c565b5060086000815480929190612029906133ae565b919050555050565b6040518060a00160405280600081526020016060815260200160008152602001606081526020016000600981111561206c5761206b6121e5565b5b81525090565b50805461207e9061273d565b6000825580601f1061209057506120af565b601f0160209004906000526020600020908101906120ae91906120b2565b5b50565b5b808211156120cb5760008160009055506001016120b3565b5090565b6000604051905090565b600080fd5b600080fd5b6000819050919050565b6120f6816120e3565b811461210157600080fd5b50565b600081359050612113816120ed565b92915050565b60006020828403121561212f5761212e6120d9565b5b600061213d84828501612104565b91505092915050565b61214f816120e3565b82525050565b600081519050919050565b600082825260208201905092915050565b60005b8381101561218f578082015181840152602081019050612174565b60008484015250505050565b6000601f19601f8301169050919050565b60006121b782612155565b6121c18185612160565b93506121d1818560208601612171565b6121da8161219b565b840191505092915050565b7f4e487b7100000000000000000000000000000000000000000000000000000000600052602160045260246000fd5b600a8110612225576122246121e5565b5b50565b600081905061223682612214565b919050565b600061224682612228565b9050919050565b6122568161223b565b82525050565b600060a0820190506122716000830188612146565b818103602083015261228381876121ac565b90506122926040830186612146565b81810360608301526122a481856121ac565b90506122b3608083018461224d565b9695505050505050565b60006020820190506122d2600083018461224d565b92915050565b600073ffffffffffffffffffffffffffffffffffffffff82169050919050565b6000612303826122d8565b9050919050565b612313816122f8565b82525050565b600060208201905061232e600083018461230a565b92915050565b60006020820190506123496000830184612146565b92915050565b612358816122f8565b811461236357600080fd5b50565b6000813590506123758161234f565b92915050565b600060208284031215612391576123906120d9565b5b600061239f84828501612366565b91505092915050565b600080fd5b600080fd5b7f4e487b7100000000000000000000000000000000000000000000000000000000600052604160045260246000fd5b6123ea8261219b565b810181811067ffffffffffffffff82111715612409576124086123b2565b5b80604052505050565b600061241c6120cf565b905061242882826123e1565b919050565b600067ffffffffffffffff821115612448576124476123b2565b5b6124518261219b565b9050602081019050919050565b82818337600083830152505050565b600061248061247b8461242d565b612412565b90508281526020810184848401111561249c5761249b6123ad565b5b6124a784828561245e565b509392505050565b600082601f8301126124c4576124c36123a8565b5b81356124d484826020860161246d565b91505092915050565b600080600080608085870312156124f7576124f66120d9565b5b600061250587828801612104565b945050602061251687828801612104565b935050604085013567ffffffffffffffff811115612537576125366120de565b5b612543878288016124af565b925050606085013567ffffffffffffffff811115612564576125636120de565b5b612570878288016124af565b91505092959194509250565b600080600060608486031215612595576125946120d9565b5b60006125a386828701612104565b935050602084013567ffffffffffffffff8111156125c4576125c36120de565b5b6125d0868287016124af565b925050604084013567ffffffffffffffff8111156125f1576125f06120de565b5b6125fd868287016124af565b9150509250925092565b612610816120e3565b82525050565b600082825260208201905092915050565b600061263282612155565b61263c8185612616565b935061264c818560208601612171565b6126558161219b565b840191505092915050565b6126698161223b565b82525050565b600060a0830160008301516126876000860182612607565b506020830151848203602086015261269f8282612627565b91505060408301516126b46040860182612607565b50606083015184820360608601526126cc8282612627565b91505060808301516126e16080860182612660565b508091505092915050565b60006020820190508181036000830152612706818461266f565b905092915050565b7f4e487b7100000000000000000000000000000000000000000000000000000000600052602260045260246000fd5b6000600282049050600182168061275557607f821691505b6020821081036127685761276761270e565b5b50919050565b7f4e487b7100000000000000000000000000000000000000000000000000000000600052603260045260246000fd5b6000815490506127ac8161273d565b9050919050565b60008190508160005260206000209050919050565b60006020601f8301049050919050565b600082821b905092915050565b6000600883026128157fffffffffffffffffffffffffffffffffffffffffffffffffffffffffffffffff826127d8565b61281f86836127d8565b95508019841693508086168417925050509392505050565b6000819050919050565b600061285c612857612852846120e3565b612837565b6120e3565b9050919050565b6000819050919050565b61287683612841565b61288a61288282612863565b8484546127e5565b825550505050565b600090565b61289f612892565b6128aa81848461286d565b505050565b5b818110156128ce576128c3600082612897565b6001810190506128b0565b5050565b601f821115612913576128e4816127b3565b6128ed846127c8565b810160208510156128fc578190505b612910612908856127c8565b8301826128af565b50505b505050565b600082821c905092915050565b600061293660001984600802612918565b1980831691505092915050565b600061294f8383612925565b9150826002028217905092915050565b81810361296d575050612a45565b6129768261279d565b67ffffffffffffffff81111561298f5761298e6123b2565b5b612999825461273d565b6129a48282856128d2565b6000601f8311600181146129d357600084156129c1578287015490505b6129cb8582612943565b865550612a3e565b601f1984166129e1876127b3565b96506129ec866127b3565b60005b82811015612a14578489015482556001820191506001850194506020810190506129ef565b86831015612a315784890154612a2d601f891682612925565b8355505b6001600288020188555050505b5050505050505b565b7f546f546865486f73706974616c00000000000000000000000000000000000000600082015250565b6000612a7d600d83612160565b9150612a8882612a47565b602082019050919050565b60006020820190508181036000830152612aac81612a70565b9050919050565b7f4e487b7100000000000000000000000000000000000000000000000000000000600052601160045260246000fd5b6000612aed826120e3565b91507fffffffffffffffffffffffffffffffffffffffffffffffffffffffffffffffff8203612b1f57612b1e612ab3565b5b600182019050919050565b7f4944206e6f7420466f756e640000000000000000000000000000000000000000600082015250565b6000612b60600c83612160565b9150612b6b82612b2a565b602082019050919050565b60006020820190508181036000830152612b8f81612b53565b9050919050565b7f74686520426c6f6f64206973207374696c6c204f6e20547261636b0000000000600082015250565b6000612bcc601b83612160565b9150612bd782612b96565b602082019050919050565b60006020820190508181036000830152612bfb81612bbf565b9050919050565b7f5265636569766564000000000000000000000000000000000000000000000000600082015250565b6000612c38600883612160565b9150612c4382612c02565b602082019050919050565b60006020820190508181036000830152612c6781612c2b565b9050919050565b7f4e6f742070686c65626f746f6d69737400000000000000000000000000000000600082015250565b6000612ca4601083612160565b9150612caf82612c6e565b602082019050919050565b60006020820190508181036000830152612cd381612c97565b9050919050565b7f7265616479000000000000000000000000000000000000000000000000000000600082015250565b6000612d10600583612160565b9150612d1b82612cda565b602082019050919050565b60006020820190508181036000830152612d3f81612d03565b9050919050565b7f456e6444656c6976657279000000000000000000000000000000000000000000600082015250565b6000612d7c600b83612160565b9150612d8782612d46565b602082019050919050565b60006020820190508181036000830152612dab81612d6f565b9050919050565b7f74686520426c6f6f642064656c697665727920697320616c726561647920646f60008201527f6e65000000000000000000000000000000000000000000000000000000000000602082015250565b6000612e0e602283612160565b9150612e1982612db2565b604082019050919050565b60006020820190508181036000830152612e3d81612e01565b9050919050565b612e4d82612155565b67ffffffffffffffff811115612e6657612e656123b2565b5b612e70825461273d565b612e7b8282856128d2565b600060209050601f831160018114612eae5760008415612e9c578287015190505b612ea68582612943565b865550612f0e565b601f198416612ebc866127b3565b60005b82811015612ee457848901518255600182019150602085019450602081019050612ebf565b86831015612f015784890151612efd601f891682612925565b8355505b6001600288020188555050505b505050505050565b7f54797065206d757374206e6f7420626520656d70747900000000000000000000600082015250565b6000612f4c601683612160565b9150612f5782612f16565b602082019050919050565b60006020820190508181036000830152612f7b81612f3f565b9050919050565b6000606082019050612f976000830186612146565b8181036020830152612fa981856121ac565b90508181036040830152612fbd81846121ac565b9050949350505050565b7f74686520426c6f6f64206973206e6f7420726561647920666f722044656c696560008201527f7665727900000000000000000000000000000000000000000000000000000000602082015250565b6000613023602483612160565b915061302e82612fc7565b604082019050919050565b6000602082019050818103600083015261305281613016565b9050919050565b7f4f6e20547261636b000000000000000000000000000000000000000000000000600082015250565b600061308f600883612160565b915061309a82613059565b602082019050919050565b600060208201905081810360008301526130be81613082565b9050919050565b7f4e6f7420746865207269676874205472616e73706f7274657200000000000000600082015250565b60006130fb601983612160565b9150613106826130c5565b602082019050919050565b6000602082019050818103600083015261312a816130ee565b9050919050565b600081905092915050565b600061314782612155565b6131518185613131565b9350613161818560208601612171565b80840191505092915050565b6000613179828461313c565b915081905092915050565b600081546131918161273d565b61319b8186613131565b945060018216600081146131b657600181146131cb576131fe565b60ff19831686528115158202860193506131fe565b6131d4856127b3565b60005b838110156131f6578154818901526001820191506020810190506131d7565b838801955050505b50505092915050565b60006132138284613184565b915081905092915050565b6000819050919050565b6132318161321e565b82525050565b600060608201905061324c6000830186613228565b6132596020830185613228565b6132666040830184612146565b949350505050565b7f666f756e64000000000000000000000000000000000000000000000000000000600082015250565b60006132a4600583612160565b91506132af8261326e565b602082019050919050565b600060208201905081810360008301526132d381613297565b9050919050565b7f626c6f6f64206e6f7420666f756e640000000000000000000000000000000000600082015250565b6000613310600f83612160565b915061331b826132da565b602082019050919050565b6000602082019050818103600083015261333f81613303565b9050919050565b6000613351826120e3565b915061335c836120e3565b925082820390508181111561337457613373612ab3565b5b92915050565b6000613385826120e3565b9150613390836120e3565b92508282019050808211156133a8576133a7612ab3565b5b92915050565b60006133b9826120e3565b9150600082036133cc576133cb612ab3565b5b60018203905091905056fea264697066735822122018f298d9b08b9bfad9921e6863399d07d2e74f3e8b892df7b0bc5decde61c08d64736f6c63430008110033",
  "immutableReferences": {},
  "source": "pragma solidity ^0.8.17;\r\nimport './Technician.sol';\r\nimport './Phlebotomist.sol';\r\nimport './Transporter.sol';\r\n\r\n\r\n\r\ncontract Production is   Phlebotomist, Transporter {\r\n    enum BloodStatus { ReadyForDelivery,  OnTrack, EndDelivery, Received,ReadyToBeDonated,ApprovedToBeDonated,OnTrackToTheHospital,ArrivedToTheHospital,ReceivedAtTheHospital,Donated}\r\n    struct BloodUnit {\r\n        uint DonnerId;\r\n        string Typee;\r\n        uint Amount;\r\n        string ExpiryDate;\r\n        Production.BloodStatus  _status; \r\n        \r\n    }\r\n   // address PhAdress;\r\n   /* function SetPhlebotomist() public{\r\n         PhAdress = Phlebotomist.getAdress();\r\n    }*/\r\n    /*function getPh()public view returns(address){\r\n        return(PhAdress);\r\n\r\n    }*/\r\n    event ready(string _etat);\r\n    event OnTrack(string _etat);\r\n    event EndDelivery(string _etat);\r\n    event Received(string _etat);\r\n    mapping (uint => BloodUnit) public units;\r\n    address [] public transporters;\r\n     uint bloodCount=0;\r\n    \r\n    \r\n     function CollectBloodUnit (uint donner )public isPhlebotomist  returns (BloodUnit memory) {\r\n         //BloodUnit  B0=BloodUnit(0,0,0,0, BloodStatus.NotReady );\r\n         //B0._status=BloodStatus.NotReady;\r\n         \r\n         BloodUnit memory B0= BloodUnit({\r\n            DonnerId: donner,\r\n            Typee: \"Unknown\" ,\r\n            Amount : 0,\r\n            ExpiryDate : \"unknown\" ,\r\n            _status : BloodStatus.ReadyForDelivery\r\n\r\n\r\n         });\r\n            units[bloodCount]= B0;\r\n            bloodCount++;\r\n            \r\n        return(B0);\r\n            \r\n\r\n                 \r\n     }\r\n     function getiD (uint _index) public view returns (uint){\r\n        return units[_index].DonnerId;\r\n     }\r\n     function getState(uint _index) public view returns(BloodStatus){\r\n        return units[_index]._status;\r\n     }\r\n      function getStateAnalyzed(uint _index) public view returns(BloodStatus){\r\n        return Analyzed[_index]._status;\r\n     }\r\n     function getStateOnDeliever(uint _index) public view returns(BloodStatus){\r\n        return OnDelievery[_index]._status;\r\n     }\r\n     function getStateHospital(uint _index) public view returns(BloodStatus){\r\n        return ToHospital[_index]._status;\r\n     }\r\n     function getStateDonation(uint _index) public view returns(BloodStatus){\r\n        return Donated[_index]._status;\r\n     }\r\n     \r\n\r\n     function AssignTransporter(address _transporter) public isPhlebotomist{\r\n         \r\n         transporters.push(_transporter);\r\n         emit ready(\"ready\");\r\n     }\r\n     \r\n     mapping (uint => BloodUnit) public OnDelievery;\r\n     uint OnDelieverycount=0;\r\n     function Start_Delivery() public {\r\n        \r\n        for (uint j=0;j<=bloodCount;j++){\r\n            if(units[j]._status==BloodStatus.ReadyForDelivery)  {  \r\n                for (uint i = 0; i < transporters.length; i++){\r\n                     if (transporters[i] == msg.sender){\r\n                        units[j]._status=BloodStatus.OnTrack;\r\n                        OnDelievery[OnDelieverycount]=units[j];\r\n                        \r\n                        OnDelieverycount++;\r\n                         \r\n                     }     \r\n                                         \r\n                }\r\n                \r\n         }\r\n         else {\r\n            revert('the Blood is not ready for Delievery');\r\n        }}\r\n        emit OnTrack(\"On Track\");\r\n        bloodCount=0;}\r\n\r\n    function End_Delivery() public {\r\n        for (uint j=0; j<OnDelieverycount;j++){\r\n        if(OnDelievery[j]._status==BloodStatus.OnTrack)  {  \r\n         for (uint i = 0; i < transporters.length; i++){\r\n            if (transporters[i] == msg.sender){\r\n                OnDelievery[j]._status=BloodStatus.EndDelivery;\r\n                \r\n\r\n                emit EndDelivery(\"EndDelivery\");\r\n            }\r\n            else {\r\n                revert('Not the right Transporter');\r\n            }\r\n         }}\r\n          else {\r\n            revert('the Blood delivery is already done');\r\n        }\r\n        }}\r\n        \r\n\r\n    function BloodReceived() public {\r\n        for(uint j=0; j<OnDelieverycount;j++){\r\n         if (OnDelievery[j]._status==BloodStatus.EndDelivery) {\r\n             OnDelievery[j]._status=BloodStatus.Received;                     \r\n              }\r\n        else {\r\n            revert('the Blood is still On Track');\r\n        }\r\n        emit Received(\"Received\"); \r\n\r\n    }\r\n    OnDelieverycount=0;}\r\n    mapping (uint => BloodUnit) public Analyzed;\r\n    uint analyzedCount=0;\r\n    \r\n    function CreateBloodUnit(uint _donner,uint _amount, string memory _expiry ,string memory  _type) public{\r\n         BloodUnit memory B0= BloodUnit({\r\n            DonnerId: _donner,\r\n            Typee: _type ,\r\n            Amount : _amount,\r\n            ExpiryDate : _expiry,\r\n            _status : BloodStatus.ReadyToBeDonated});\r\n        Analyzed[analyzedCount]=B0;\r\n        analyzedCount++;\r\n        \r\n        \r\n    }\r\n    event order(uint am, string ty,string DoR);\r\n    function OrderBlood(uint _amount,string memory _type, string memory  _DateofOrder) public{\r\n        require(bytes(_type).length > 0, \"Type must not be empty\");\r\n        emit order(_amount,_type,_DateofOrder);\r\n\r\n    }\r\n\r\nevent compare(bytes32 h1, bytes32 h2 , uint ii);\r\n  function Approve(uint _amount,string memory _date  ,string memory _type) public   returns(uint) {\r\n    bool test = false;\r\n    uint i = 0;\r\n    \r\n    \r\n    while (i < analyzedCount && !test) {\r\n       \r\n        if (keccak256(abi.encodePacked(Analyzed[i].Typee)) ==keccak256(abi.encodePacked( _type)) && Analyzed[i].Amount >= _amount) {\r\n            test = true;\r\n            emit compare(keccak256(abi.encodePacked(Analyzed[i].Typee)),keccak256(abi.encodePacked( _type)), i);\r\n        } else {\r\n            \r\n            i++;}       \r\n    }\r\n    if(test){\r\n      \r\n        emit Received(\"found\");\r\n        Analyzed[i]._status=BloodStatus.ApprovedToBeDonated;        \r\n        \r\n        return(i);}\r\n        else{\r\n            revert(\"blood not found\");\r\n        }   \r\n    \r\n }\r\n\r\n function DeleteFromAnalyzed(uint i)private {    \r\n    delete Analyzed[i];\r\n    for (uint j =i; i < analyzedCount - 1; i++) {\r\n        Analyzed[j] = Analyzed[j+1];\r\n    }\r\n   analyzedCount--;\r\n }\r\n\r\nmapping(uint => BloodUnit) public  ToHospital;\r\nuint ToHospitalCount=0;\r\n\r\n function DelieverToHospital() public {\r\n        for (uint j=0;j<analyzedCount;j++){\r\n            if( Analyzed[j]._status==BloodStatus.ApprovedToBeDonated)  {  \r\n                for (uint i = 0; i < transporters.length; i++){\r\n                     if (transporters[i] == msg.sender){\r\n                        Analyzed[j]._status=BloodStatus.OnTrackToTheHospital;\r\n                        ToHospital[ToHospitalCount]=Analyzed[j];\r\n                        DeleteFromAnalyzed(j);\r\n                        emit OnTrack(\"ToTheHospital\");\r\n                        ToHospitalCount++;}\r\n                        //else{\r\n                          //  revert('Not the right Transporter');\r\n                       // }                                              \r\n                } \r\n                             \r\n         }       \r\n        }\r\n         \r\n        \r\n        }\r\n\r\n    function ArrivedToTheHospital() public {\r\n        for (uint j=0; j<ToHospitalCount;j++){\r\n        if(ToHospital[j]._status==BloodStatus.OnTrackToTheHospital)  {  \r\n         for (uint i = 0; i < transporters.length; i++){\r\n            if (transporters[i] == msg.sender){\r\n                ToHospital[j]._status=BloodStatus.ArrivedToTheHospital;\r\n\r\n                emit EndDelivery(\"EndDelivery\");\r\n            }\r\n             else {\r\n            revert('the Blood delivery is already done');\r\n        }\r\n           \r\n         }}\r\n        }}\r\n\r\n        mapping (uint=>BloodUnit) Donated;\r\n        uint DonatedCount=0;\r\n        \r\n        function BloodReceivedInTheHospital() public {\r\n        for(uint j=0; j<ToHospitalCount;j++){\r\n         if (ToHospital[j]._status==BloodStatus.ArrivedToTheHospital) {\r\n            ToHospital[j]._status=BloodStatus.ReceivedAtTheHospital;\r\n            Donated[DonatedCount]=ToHospital[j];\r\n            DonatedCount++;\r\n            emit Received(\"Received\");\r\n          }\r\n        else {\r\n            revert('the Blood is still On Track');\r\n        }\r\n    }\r\n    ToHospitalCount=0;}\r\n\r\n    function Donation (uint _id) public {\r\n       bool test=false;\r\n       uint j=0;\r\n       while ( j<=DonatedCount && test==false){\r\n            if (Donated[j].DonnerId==_id){\r\n                test=true;\r\n            }\r\n            else{\r\n                j++;\r\n            }\r\n        }\r\n        if(test){\r\n            Donated[j]._status=BloodStatus.Donated;          \r\n        }\r\n        else{\r\n            revert(\"ID not Found\");\r\n        }\r\n    }\r\n }\r\n \r\n\r\n\r\n",
  "sourcePath": "C:\\Users\\jaoua\\Documents\\truffle\\contracts\\Production.sol",
  "compiler": {
    "name": "solc",
    "version": "0.8.17+commit.8df45f5f.Emscripten.clang"
  },
  "schemaVersion": "3.4.11",
  "updatedAt": "2023-04-18T03:26:30.306Z",
  "networkType": "ethereum",
  "devdoc": {
    "kind": "dev",
    "methods": {},
    "version": 1
  },
  "userdoc": {
    "kind": "user",
    "methods": {},
    "version": 1
  }
}