{
  "contractName": "Production",
  "abi": [
    {
      "anonymous": false,
      "inputs": [
        {
          "indexed": false,
          "internalType": "string",
          "name": "p",
          "type": "string"
        }
      ],
      "name": "Done",
      "type": "event"
    },
    {
      "anonymous": false,
      "inputs": [
        {
          "indexed": false,
          "internalType": "string",
          "name": "_etat",
          "type": "string"
        }
      ],
      "name": "EndDelivery",
      "type": "event"
    },
    {
      "anonymous": false,
      "inputs": [
        {
          "indexed": false,
          "internalType": "string",
          "name": "p",
          "type": "string"
        }
      ],
      "name": "None",
      "type": "event"
    },
    {
      "anonymous": false,
      "inputs": [
        {
          "indexed": false,
          "internalType": "string",
          "name": "_etat",
          "type": "string"
        }
      ],
      "name": "OnTrack",
      "type": "event"
    },
    {
      "anonymous": false,
      "inputs": [
        {
          "indexed": false,
          "internalType": "string",
          "name": "_etat",
          "type": "string"
        }
      ],
      "name": "Received",
      "type": "event"
    },
    {
      "anonymous": false,
      "inputs": [
        {
          "indexed": false,
          "internalType": "bytes32",
          "name": "h1",
          "type": "bytes32"
        },
        {
          "indexed": false,
          "internalType": "bytes32",
          "name": "h2",
          "type": "bytes32"
        },
        {
          "indexed": false,
          "internalType": "uint256",
          "name": "ii",
          "type": "uint256"
        }
      ],
      "name": "compare",
      "type": "event"
    },
    {
      "anonymous": false,
      "inputs": [
        {
          "indexed": false,
          "internalType": "string",
          "name": "d",
          "type": "string"
        }
      ],
      "name": "dd",
      "type": "event"
    },
    {
      "anonymous": false,
      "inputs": [
        {
          "indexed": false,
          "internalType": "string",
          "name": "ty",
          "type": "string"
        }
      ],
      "name": "order",
      "type": "event"
    },
    {
      "anonymous": false,
      "inputs": [
        {
          "indexed": false,
          "internalType": "string",
          "name": "p",
          "type": "string"
        }
      ],
      "name": "pos",
      "type": "event"
    },
    {
      "anonymous": false,
      "inputs": [
        {
          "indexed": false,
          "internalType": "string",
          "name": "_etat",
          "type": "string"
        }
      ],
      "name": "ready",
      "type": "event"
    },
    {
      "inputs": [
        {
          "internalType": "uint256",
          "name": "",
          "type": "uint256"
        }
      ],
      "name": "Analyzed",
      "outputs": [
        {
          "internalType": "uint256",
          "name": "DonnerId",
          "type": "uint256"
        },
        {
          "internalType": "string",
          "name": "Typee",
          "type": "string"
        },
        {
          "internalType": "uint256",
          "name": "Amount",
          "type": "uint256"
        },
        {
          "internalType": "string",
          "name": "ExpiryDate",
          "type": "string"
        },
        {
          "internalType": "enum Production.BloodStatus",
          "name": "_status",
          "type": "uint8"
        }
      ],
      "stateMutability": "view",
      "type": "function",
      "constant": true
    },
    {
      "inputs": [
        {
          "internalType": "uint256",
          "name": "",
          "type": "uint256"
        }
      ],
      "name": "OnDelievery",
      "outputs": [
        {
          "internalType": "uint256",
          "name": "DonnerId",
          "type": "uint256"
        },
        {
          "internalType": "string",
          "name": "Typee",
          "type": "string"
        },
        {
          "internalType": "uint256",
          "name": "Amount",
          "type": "uint256"
        },
        {
          "internalType": "string",
          "name": "ExpiryDate",
          "type": "string"
        },
        {
          "internalType": "enum Production.BloodStatus",
          "name": "_status",
          "type": "uint8"
        }
      ],
      "stateMutability": "view",
      "type": "function",
      "constant": true
    },
    {
      "inputs": [
        {
          "internalType": "uint256",
          "name": "",
          "type": "uint256"
        }
      ],
      "name": "ToHospital",
      "outputs": [
        {
          "internalType": "uint256",
          "name": "DonnerId",
          "type": "uint256"
        },
        {
          "internalType": "string",
          "name": "Typee",
          "type": "string"
        },
        {
          "internalType": "uint256",
          "name": "Amount",
          "type": "uint256"
        },
        {
          "internalType": "string",
          "name": "ExpiryDate",
          "type": "string"
        },
        {
          "internalType": "enum Production.BloodStatus",
          "name": "_status",
          "type": "uint8"
        }
      ],
      "stateMutability": "view",
      "type": "function",
      "constant": true
    },
    {
      "inputs": [],
      "name": "getAdress",
      "outputs": [
        {
          "internalType": "address",
          "name": "",
          "type": "address"
        }
      ],
      "stateMutability": "view",
      "type": "function",
      "constant": true
    },
    {
      "inputs": [],
      "name": "getAdresss",
      "outputs": [
        {
          "internalType": "address",
          "name": "",
          "type": "address"
        }
      ],
      "stateMutability": "view",
      "type": "function",
      "constant": true
    },
    {
      "inputs": [
        {
          "internalType": "uint256",
          "name": "",
          "type": "uint256"
        }
      ],
      "name": "transporters",
      "outputs": [
        {
          "internalType": "address",
          "name": "",
          "type": "address"
        }
      ],
      "stateMutability": "view",
      "type": "function",
      "constant": true
    },
    {
      "inputs": [
        {
          "internalType": "uint256",
          "name": "",
          "type": "uint256"
        }
      ],
      "name": "units",
      "outputs": [
        {
          "internalType": "uint256",
          "name": "DonnerId",
          "type": "uint256"
        },
        {
          "internalType": "string",
          "name": "Typee",
          "type": "string"
        },
        {
          "internalType": "uint256",
          "name": "Amount",
          "type": "uint256"
        },
        {
          "internalType": "string",
          "name": "ExpiryDate",
          "type": "string"
        },
        {
          "internalType": "enum Production.BloodStatus",
          "name": "_status",
          "type": "uint8"
        }
      ],
      "stateMutability": "view",
      "type": "function",
      "constant": true
    },
    {
      "inputs": [
        {
          "internalType": "uint256",
          "name": "donner",
          "type": "uint256"
        }
      ],
      "name": "CollectBloodUnit",
      "outputs": [
        {
          "components": [
            {
              "internalType": "uint256",
              "name": "DonnerId",
              "type": "uint256"
            },
            {
              "internalType": "string",
              "name": "Typee",
              "type": "string"
            },
            {
              "internalType": "uint256",
              "name": "Amount",
              "type": "uint256"
            },
            {
              "internalType": "string",
              "name": "ExpiryDate",
              "type": "string"
            },
            {
              "internalType": "enum Production.BloodStatus",
              "name": "_status",
              "type": "uint8"
            }
          ],
          "internalType": "struct Production.BloodUnit",
          "name": "",
          "type": "tuple"
        }
      ],
      "stateMutability": "nonpayable",
      "type": "function"
    },
    {
      "inputs": [],
      "name": "getCount",
      "outputs": [
        {
          "internalType": "uint256",
          "name": "",
          "type": "uint256"
        }
      ],
      "stateMutability": "view",
      "type": "function",
      "constant": true
    },
    {
      "inputs": [
        {
          "internalType": "uint256",
          "name": "_index",
          "type": "uint256"
        }
      ],
      "name": "getiD",
      "outputs": [
        {
          "internalType": "uint256",
          "name": "",
          "type": "uint256"
        }
      ],
      "stateMutability": "view",
      "type": "function",
      "constant": true
    },
    {
      "inputs": [
        {
          "internalType": "uint256",
          "name": "_index",
          "type": "uint256"
        }
      ],
      "name": "getState",
      "outputs": [
        {
          "internalType": "enum Production.BloodStatus",
          "name": "",
          "type": "uint8"
        }
      ],
      "stateMutability": "view",
      "type": "function",
      "constant": true
    },
    {
      "inputs": [
        {
          "internalType": "uint256",
          "name": "_index",
          "type": "uint256"
        }
      ],
      "name": "getStateAnalyzed",
      "outputs": [
        {
          "internalType": "enum Production.BloodStatus",
          "name": "",
          "type": "uint8"
        }
      ],
      "stateMutability": "view",
      "type": "function",
      "constant": true
    },
    {
      "inputs": [
        {
          "internalType": "uint256",
          "name": "_index",
          "type": "uint256"
        }
      ],
      "name": "getStateOnDeliever",
      "outputs": [
        {
          "internalType": "enum Production.BloodStatus",
          "name": "",
          "type": "uint8"
        }
      ],
      "stateMutability": "view",
      "type": "function",
      "constant": true
    },
    {
      "inputs": [
        {
          "internalType": "uint256",
          "name": "_index",
          "type": "uint256"
        }
      ],
      "name": "getStateHospital",
      "outputs": [
        {
          "internalType": "enum Production.BloodStatus",
          "name": "",
          "type": "uint8"
        }
      ],
      "stateMutability": "view",
      "type": "function",
      "constant": true
    },
    {
      "inputs": [
        {
          "internalType": "uint256",
          "name": "_index",
          "type": "uint256"
        }
      ],
      "name": "getStateDonation",
      "outputs": [
        {
          "internalType": "enum Production.BloodStatus",
          "name": "",
          "type": "uint8"
        }
      ],
      "stateMutability": "view",
      "type": "function",
      "constant": true
    },
    {
      "inputs": [
        {
          "internalType": "address",
          "name": "_transporter",
          "type": "address"
        }
      ],
      "name": "AssignTransporter",
      "outputs": [],
      "stateMutability": "nonpayable",
      "type": "function"
    },
    {
      "inputs": [],
      "name": "Start_Delivery",
      "outputs": [],
      "stateMutability": "nonpayable",
      "type": "function"
    },
    {
      "inputs": [],
      "name": "End_Delivery",
      "outputs": [],
      "stateMutability": "nonpayable",
      "type": "function"
    },
    {
      "inputs": [],
      "name": "BloodReceived",
      "outputs": [],
      "stateMutability": "nonpayable",
      "type": "function"
    },
    {
      "inputs": [
        {
          "internalType": "uint256",
          "name": "_donner",
          "type": "uint256"
        },
        {
          "internalType": "uint256",
          "name": "_amount",
          "type": "uint256"
        },
        {
          "internalType": "string",
          "name": "_expiry",
          "type": "string"
        },
        {
          "internalType": "string",
          "name": "_type",
          "type": "string"
        }
      ],
      "name": "CreateBloodUnit",
      "outputs": [],
      "stateMutability": "nonpayable",
      "type": "function"
    },
    {
      "inputs": [
        {
          "internalType": "uint256",
          "name": "_Id",
          "type": "uint256"
        }
      ],
      "name": "StateInUnits",
      "outputs": [
        {
          "internalType": "uint256",
          "name": "",
          "type": "uint256"
        }
      ],
      "stateMutability": "view",
      "type": "function",
      "constant": true
    },
    {
      "inputs": [
        {
          "internalType": "uint256",
          "name": "_Id",
          "type": "uint256"
        }
      ],
      "name": "StateInOnDeliver",
      "outputs": [
        {
          "internalType": "uint256",
          "name": "",
          "type": "uint256"
        }
      ],
      "stateMutability": "view",
      "type": "function",
      "constant": true
    },
    {
      "inputs": [
        {
          "internalType": "uint256",
          "name": "_Id",
          "type": "uint256"
        }
      ],
      "name": "StateInAnalyzed",
      "outputs": [
        {
          "internalType": "uint256",
          "name": "",
          "type": "uint256"
        }
      ],
      "stateMutability": "view",
      "type": "function",
      "constant": true
    },
    {
      "inputs": [
        {
          "internalType": "uint256",
          "name": "_Id",
          "type": "uint256"
        }
      ],
      "name": "StateToHospital",
      "outputs": [
        {
          "internalType": "uint256",
          "name": "",
          "type": "uint256"
        }
      ],
      "stateMutability": "view",
      "type": "function",
      "constant": true
    },
    {
      "inputs": [
        {
          "internalType": "uint256",
          "name": "_Id",
          "type": "uint256"
        }
      ],
      "name": "StateDonated",
      "outputs": [
        {
          "internalType": "uint256",
          "name": "",
          "type": "uint256"
        }
      ],
      "stateMutability": "view",
      "type": "function",
      "constant": true
    },
    {
      "inputs": [
        {
          "internalType": "uint256",
          "name": "_Id",
          "type": "uint256"
        }
      ],
      "name": "States",
      "outputs": [
        {
          "internalType": "string",
          "name": "",
          "type": "string"
        }
      ],
      "stateMutability": "nonpayable",
      "type": "function"
    },
    {
      "inputs": [
        {
          "internalType": "uint256",
          "name": "_amount",
          "type": "uint256"
        },
        {
          "internalType": "string",
          "name": "_date",
          "type": "string"
        },
        {
          "internalType": "string",
          "name": "_type",
          "type": "string"
        }
      ],
      "name": "Approve",
      "outputs": [
        {
          "internalType": "uint256",
          "name": "",
          "type": "uint256"
        }
      ],
      "stateMutability": "nonpayable",
      "type": "function"
    },
    {
      "inputs": [],
      "name": "getApproved",
      "outputs": [
        {
          "internalType": "uint256",
          "name": "",
          "type": "uint256"
        }
      ],
      "stateMutability": "view",
      "type": "function",
      "constant": true
    },
    {
      "inputs": [],
      "name": "DelieverToHospital",
      "outputs": [],
      "stateMutability": "nonpayable",
      "type": "function"
    },
    {
      "inputs": [],
      "name": "ArrivedToTheHospital",
      "outputs": [],
      "stateMutability": "nonpayable",
      "type": "function"
    },
    {
      "inputs": [
        {
          "internalType": "uint256",
          "name": "_id",
          "type": "uint256"
        }
      ],
      "name": "Donation",
      "outputs": [],
      "stateMutability": "nonpayable",
      "type": "function"
    }
  ],
  "bytecode": "0x6080604052600060065560006008556000600a556000600b556000600d556000600f5534801561002e57600080fd5b50336000806101000a81548173ffffffffffffffffffffffffffffffffffffffff021916908373ffffffffffffffffffffffffffffffffffffffff16021790555033600160006101000a81548173ffffffffffffffffffffffffffffffffffffffff021916908373ffffffffffffffffffffffffffffffffffffffff16021790555033600260006101000a81548173ffffffffffffffffffffffffffffffffffffffff021916908373ffffffffffffffffffffffffffffffffffffffff16021790555033600360006101000a81548173ffffffffffffffffffffffffffffffffffffffff021916908373ffffffffffffffffffffffffffffffffffffffff160217905550614273806101416000396000f3fe608060405234801561001057600080fd5b50600436106101e55760003560e01c8063803933d91161010f578063be5dbb43116100a2578063d07b77b511610071578063d07b77b5146105d6578063e26f7734146105f4578063e5fba6cc14610624578063fb4c4b3a14610658576101e5565b8063be5dbb4314610562578063bfbea3791461056c578063c1e1677e1461059c578063c33e85ab146105a6576101e5565b8063a8e153cc116100de578063a8e153cc146104dc578063ac3aa1b51461050c578063ae967a6f1461053c578063b11a56b314610546576101e5565b8063803933d91461042a5780638f60c05f1461045e578063942dce7f1461048e578063a87d942c146104be576101e5565b806342294e60116101875780635cbc4687116101565780635cbc46871461038c5780636b37d362146103bc57806372c23251146103da57806377e121541461040e576101e5565b806342294e601461030657806344c9af28146103365780634ad6d3cd146103665780634e80591914610382576101e5565b806318ea6bb7116101c357806318ea6bb71461027e57806329c2a877146102885780632c97c44a146102b857806341b4d3e1146102e8576101e5565b8063022bd506146101ea5780630fd27e911461021e5780631828f4881461024e575b600080fd5b61020460048036038101906101ff9190612a09565b610688565b604051610215959493929190612b4c565b60405180910390f35b61023860048036038101906102339190612a09565b6107db565b6040516102459190612bad565b60405180910390f35b61026860048036038101906102639190612a09565b610808565b6040516102759190612bc8565b60405180910390f35b61028661087d565b005b6102a2600480360381019061029d9190612a09565b610b0e565b6040516102af9190612c24565b60405180910390f35b6102d260048036038101906102cd9190612a09565b610b4d565b6040516102df9190612bad565b60405180910390f35b6102f0610b7a565b6040516102fd9190612c24565b60405180910390f35b610320600480360381019061031b9190612a09565b610ba4565b60405161032d9190612bc8565b60405180910390f35b610350600480360381019061034b9190612a09565b610bc4565b60405161035d9190612bad565b60405180910390f35b610380600480360381019061037b9190612a09565b610bf1565b005b61038a610d3e565b005b6103a660048036038101906103a19190612a09565b610ec6565b6040516103b39190612bc8565b60405180910390f35b6103c4610f3b565b6040516103d19190612c24565b60405180910390f35b6103f460048036038101906103ef9190612a09565b610f64565b604051610405959493929190612b4c565b60405180910390f35b61042860048036038101906104239190612c6b565b6110b7565b005b610444600480360381019061043f9190612a09565b6111e0565b604051610455959493929190612b4c565b60405180910390f35b61047860048036038101906104739190612a09565b611333565b6040516104859190612c98565b60405180910390f35b6104a860048036038101906104a39190612a09565b61186d565b6040516104b59190612bc8565b60405180910390f35b6104c66118e2565b6040516104d39190612bc8565b60405180910390f35b6104f660048036038101906104f19190612a09565b6118ec565b6040516105039190612bc8565b60405180910390f35b61052660048036038101906105219190612a09565b611961565b6040516105339190612bad565b60405180910390f35b61054461198e565b005b610560600480360381019061055b9190612def565b611b58565b005b61056a611c3e565b005b61058660048036038101906105819190612a09565b611f9b565b6040516105939190612bc8565b60405180910390f35b6105a4612010565b005b6105c060048036038101906105bb9190612a09565b612219565b6040516105cd9190612bad565b60405180910390f35b6105de612246565b6040516105eb9190612bc8565b60405180910390f35b61060e60048036038101906106099190612e8e565b612250565b60405161061b9190612bc8565b60405180910390f35b61063e60048036038101906106399190612a09565b612490565b60405161064f959493929190612b4c565b60405180910390f35b610672600480360381019061066d9190612a09565b6125e3565b60405161067f9190612ffe565b60405180910390f35b600c6020528060005260406000206000915090508060000154908060010180546106b19061304f565b80601f01602080910402602001604051908101604052809291908181526020018280546106dd9061304f565b801561072a5780601f106106ff5761010080835404028352916020019161072a565b820191906000526020600020905b81548152906001019060200180831161070d57829003601f168201915b5050505050908060020154908060030180546107459061304f565b80601f01602080910402602001604051908101604052809291908181526020018280546107719061304f565b80156107be5780601f10610793576101008083540402835291602001916107be565b820191906000526020600020905b8154815290600101906020018083116107a157829003601f168201915b5050505050908060040160009054906101000a900460ff16905085565b6000600c600083815260200190815260200160002060040160009054906101000a900460ff169050919050565b6000806000905060005b600f5481108015610821575081155b1561086057600e600082815260200190815260200160002060000154840361084c576001915061085b565b8080610857906130af565b9150505b610812565b8115610870578092505050610878565b61270f925050505b919050565b6000805b600a54811015610ac3576005600881111561089f5761089e612ad5565b5b6009600083815260200190815260200160002060040160009054906101000a900460ff1660088111156108d5576108d4612ad5565b5b03610ab05760005b600580549050811015610aae57600581815481106108fe576108fd6130f7565b5b9060005260206000200160009054906101000a900473ffffffffffffffffffffffffffffffffffffffff1673ffffffffffffffffffffffffffffffffffffffff163373ffffffffffffffffffffffffffffffffffffffff1603610a9b576001925060066009600084815260200190815260200160002060040160006101000a81548160ff0219169083600881111561099957610998612ad5565b5b021790555060096000838152602001908152602001600020600c6000600d54815260200190815260200160002060008201548160000155600182018160010190816109e491906132e8565b506002820154816002015560038201816003019081610a0391906132e8565b506004820160009054906101000a900460ff168160040160006101000a81548160ff02191690836008811115610a3c57610a3b612ad5565b5b0217905550905050610a4d826127cc565b7ffbb1b4e9e7dec27e981d312b01f33e3fd2b2b3e463427e84d7c3a1f5b02bd87c604051610a7a9061341c565b60405180910390a1600d6000815480929190610a95906130af565b91905055505b8080610aa6906130af565b9150506108dd565b505b8080610abb906130af565b915050610881565b506000151581151503610b0b576040517f08c379a0000000000000000000000000000000000000000000000000000000008152600401610b0290613488565b60405180910390fd5b50565b60058181548110610b1e57600080fd5b906000526020600020016000915054906101000a900473ffffffffffffffffffffffffffffffffffffffff1681565b60006007600083815260200190815260200160002060040160009054906101000a900460ff169050919050565b6000600160009054906101000a900473ffffffffffffffffffffffffffffffffffffffff16905090565b600060046000838152602001908152602001600020600001549050919050565b60006004600083815260200190815260200160002060040160009054906101000a900460ff169050919050565b60006040518060a001604052808381526020016040518060400160405280600281526020017f5f5f0000000000000000000000000000000000000000000000000000000000008152508152602001600081526020016040518060400160405280600281526020017f5f5f0000000000000000000000000000000000000000000000000000000000008152508152602001600880811115610c9457610c93612ad5565b5b815250905080600e6000600f548152602001908152602001600020600082015181600001556020820151816001019081610cce91906134a8565b50604082015181600201556060820151816003019081610cee91906134a8565b5060808201518160040160006101000a81548160ff02191690836008811115610d1a57610d19612ad5565b5b0217905550905050600f6000815480929190610d35906130af565b91905055505050565b60005b600854811015610ebb5760026008811115610d5f57610d5e612ad5565b5b6007600083815260200190815260200160002060040160009054906101000a900460ff166008811115610d9557610d94612ad5565b5b03610e385760036007600083815260200190815260200160002060040160006101000a81548160ff02191690836008811115610dd457610dd3612ad5565b5b021790555060076000828152602001908152602001600020600080820160009055600182016000610e059190612921565b6002820160009055600382016000610e1d9190612921565b6004820160006101000a81549060ff02191690555050610e73565b6040517f08c379a0000000000000000000000000000000000000000000000000000000008152600401610e6a906135c6565b60405180910390fd5b7feb7115a99b4ff3975015662e8f8d0434763af973215290ec6d1f8068233ff79f604051610ea090613632565b60405180910390a18080610eb3906130af565b915050610d41565b506000600881905550565b6000806000905060005b60065481108015610edf575081155b15610f1e5760046000828152602001908152602001600020600001548403610f0a5760019150610f19565b8080610f15906130af565b9150505b610ed0565b8115610f2e578092505050610f36565b61270f925050505b919050565b60008060009054906101000a900473ffffffffffffffffffffffffffffffffffffffff16905090565b6009602052806000526040600020600091509050806000015490806001018054610f8d9061304f565b80601f0160208091040260200160405190810160405280929190818152602001828054610fb99061304f565b80156110065780601f10610fdb57610100808354040283529160200191611006565b820191906000526020600020905b815481529060010190602001808311610fe957829003601f168201915b5050505050908060020154908060030180546110219061304f565b80601f016020809104026020016040519081016040528092919081815260200182805461104d9061304f565b801561109a5780601f1061106f5761010080835404028352916020019161109a565b820191906000526020600020905b81548152906001019060200180831161107d57829003601f168201915b5050505050908060040160009054906101000a900460ff16905085565b60008054906101000a900473ffffffffffffffffffffffffffffffffffffffff1673ffffffffffffffffffffffffffffffffffffffff163373ffffffffffffffffffffffffffffffffffffffff1614611145576040517f08c379a000000000000000000000000000000000000000000000000000000000815260040161113c9061369e565b60405180910390fd5b6005819080600181540180825580915050600190039060005260206000200160009091909190916101000a81548173ffffffffffffffffffffffffffffffffffffffff021916908373ffffffffffffffffffffffffffffffffffffffff1602179055507f8a473fa15b9468c004693aaa07cbbbe5d513d99723197399a19fbb8a4f63db896040516111d59061370a565b60405180910390a150565b60076020528060005260406000206000915090508060000154908060010180546112099061304f565b80601f01602080910402602001604051908101604052809291908181526020018280546112359061304f565b80156112825780601f1061125757610100808354040283529160200191611282565b820191906000526020600020905b81548152906001019060200180831161126557829003601f168201915b50505050509080600201549080600301805461129d9061304f565b80601f01602080910402602001604051908101604052809291908181526020018280546112c99061304f565b80156113165780601f106112eb57610100808354040283529160200191611316565b820191906000526020600020905b8154815290600101906020018083116112f957829003601f168201915b5050505050908060040160009054906101000a900460ff16905085565b6060600061134083610ec6565b9050600061134d846118ec565b9050600061135a85611f9b565b9050600061136786610808565b905060006113748761186d565b905061270f82146113d9577f3f6f2035e83c1b5cdbbac085d1dd974406b29f19c2b348224cb9a453e04a99956040516113ac90613776565b60405180910390a16040518060800160405280605881526020016140dc6058913995505050505050611868565b61270f81146114b057600660088111156113f6576113f5612ad5565b5b600c600083815260200190815260200160002060040160009054906101000a900460ff16600881111561142c5761142b612ad5565b5b03611456576040518060600160405280602681526020016142186026913995505050505050611868565b7ff87f4a0a7aecba8967a329fc6563ae52413e6aeb3d4a9e3184f27de3c2090288604051611483906137e2565b60405180910390a16040518060600160405280602681526020016140716026913995505050505050611868565b61270f84146115d957600560088111156114cd576114cc612ad5565b5b6009600086815260200190815260200160002060040160009054906101000a900460ff16600881111561150357611502612ad5565b5b0361157f577fdb3d31dc510335e8572468505e68afcb3a5826ad95f2d60e9e972cf203e742696040516115359061384e565b60405180910390a16040518060400160405280601f81526020017f4120646f63746f7220686173206f72646572656420796f757220426c6f6f640081525095505050505050611868565b7fd1626f53eabd5fdb65783801d88f0b1a10618a5458ffa51aa8b436dd37ac5f8a6040516115ac906138ba565b60405180910390a16040518060600160405280602b81526020016141ed602b913995505050505050611868565b61270f831461179257600160088111156115f6576115f5612ad5565b5b60076000600854815260200190815260200160002060040160009054906101000a900460ff16600881111561162e5761162d612ad5565b5b0361168d577ffbb1b4e9e7dec27e981d312b01f33e3fd2b2b3e463427e84d7c3a1f5b02bd87c60405161166090613926565b60405180910390a16040518060600160405280602881526020016141346028913995505050505050611868565b600260088111156116a1576116a0612ad5565b5b60076000600854815260200190815260200160002060040160009054906101000a900460ff1660088111156116d9576116d8612ad5565b5b03611738577fd231e56c343322f0d3d33b9249d2cf348f94f8fb054cc595f2f8de12bb48b65960405161170b90613992565b60405180910390a160405180606001604052806028815260200161415c6028913995505050505050611868565b7feb7115a99b4ff3975015662e8f8d0434763af973215290ec6d1f8068233ff79f604051611765906139fe565b60405180910390a16040518060800160405280604581526020016140976045913995505050505050611868565b61270f8514611812577f8a473fa15b9468c004693aaa07cbbbe5d513d99723197399a19fbb8a4f63db896040516117c89061370a565b60405180910390a16040518060400160405280601281526020017f526561647920466f722044656c6976657279000000000000000000000000000081525095505050505050611868565b7f7dbd9441b5b6fc0ce9d24cebb3724c42613131bc0d64a871bb56192921b0735d60405161183f90613a6a565b60405180910390a16040518060a001604052806069815260200161418460699139955050505050505b919050565b6000806000905060005b600d5481108015611886575081155b156118c557600c60008281526020019081526020016000206000015484036118b157600191506118c0565b80806118bc906130af565b9150505b611877565b81156118d55780925050506118dd565b61270f925050505b919050565b6000600654905090565b6000806000905060005b600a5481108015611905575081155b156119445760096000828152602001908152602001600020600001548403611930576001915061193f565b808061193b906130af565b9150505b6118f6565b811561195457809250505061195c565b61270f925050505b919050565b60006009600083815260200190815260200160002060040160009054906101000a900460ff169050919050565b6000805b600d54811015611b0d57600660088111156119b0576119af612ad5565b5b600c600083815260200190815260200160002060040160009054906101000a900460ff1660088111156119e6576119e5612ad5565b5b03611afa5760005b600580549050811015611af85760058181548110611a0f57611a0e6130f7565b5b9060005260206000200160009054906101000a900473ffffffffffffffffffffffffffffffffffffffff1673ffffffffffffffffffffffffffffffffffffffff163373ffffffffffffffffffffffffffffffffffffffff1603611ae557600192506007600c600084815260200190815260200160002060040160006101000a81548160ff02191690836008811115611aaa57611aa9612ad5565b5b02179055507fd231e56c343322f0d3d33b9249d2cf348f94f8fb054cc595f2f8de12bb48b659604051611adc90613ad6565b60405180910390a15b8080611af0906130af565b9150506119ee565b505b8080611b05906130af565b915050611992565b506000151581151503611b55576040517f08c379a0000000000000000000000000000000000000000000000000000000008152600401611b4c90613b42565b60405180910390fd5b50565b60006040518060a0016040528086815260200183815260200185815260200184815260200160046008811115611b9157611b90612ad5565b5b81525090508060096000600a548152602001908152602001600020600082015181600001556020820151816001019081611bcb91906134a8565b50604082015181600201556060820151816003019081611beb91906134a8565b5060808201518160040160006101000a81548160ff02191690836008811115611c1757611c16612ad5565b5b0217905550905050600a6000815480929190611c32906130af565b91905055505050505050565b600160009054906101000a900473ffffffffffffffffffffffffffffffffffffffff1673ffffffffffffffffffffffffffffffffffffffff163373ffffffffffffffffffffffffffffffffffffffff1614611cce576040517f08c379a0000000000000000000000000000000000000000000000000000000008152600401611cc590613bae565b60405180910390fd5b6000805b6006548111611f495760006008811115611cef57611cee612ad5565b5b6004600083815260200190815260200160002060040160009054906101000a900460ff166008811115611d2557611d24612ad5565b5b03611efb5760005b600580549050811015611ef55760058181548110611d4e57611d4d6130f7565b5b9060005260206000200160009054906101000a900473ffffffffffffffffffffffffffffffffffffffff1673ffffffffffffffffffffffffffffffffffffffff163373ffffffffffffffffffffffffffffffffffffffff1603611ee2576001925060016004600084815260200190815260200160002060040160006101000a81548160ff02191690836008811115611de957611de8612ad5565b5b0217905550600460008381526020019081526020016000206007600060085481526020019081526020016000206000820154816000015560018201816001019081611e3491906132e8565b506002820154816002015560038201816003019081611e5391906132e8565b506004820160009054906101000a900460ff168160040160006101000a81548160ff02191690836008811115611e8c57611e8b612ad5565b5b021790555090505060086000815480929190611ea7906130af565b91905055507ffbb1b4e9e7dec27e981d312b01f33e3fd2b2b3e463427e84d7c3a1f5b02bd87c604051611ed990613c1a565b60405180910390a15b8080611eed906130af565b915050611d2d565b50611f36565b6040517f08c379a0000000000000000000000000000000000000000000000000000000008152600401611f2d90613cac565b60405180910390fd5b8080611f41906130af565b915050611cd2565b508015611f5d576000600681905550611f98565b6040517f08c379a0000000000000000000000000000000000000000000000000000000008152600401611f8f90613d18565b60405180910390fd5b50565b6000806000905060005b60085481108015611fb4575081155b15611ff35760076000828152602001908152602001600020600001548403611fdf5760019150611fee565b8080611fea906130af565b9150505b611fa5565b811561200357809250505061200b565b61270f925050505b919050565b6000805b6008548110156121ce576001600881111561203257612031612ad5565b5b6007600083815260200190815260200160002060040160009054906101000a900460ff16600881111561206857612067612ad5565b5b036121805760005b60058054905081101561217a5760058181548110612091576120906130f7565b5b9060005260206000200160009054906101000a900473ffffffffffffffffffffffffffffffffffffffff1673ffffffffffffffffffffffffffffffffffffffff163373ffffffffffffffffffffffffffffffffffffffff1603612167576001925060026007600084815260200190815260200160002060040160006101000a81548160ff0219169083600881111561212c5761212b612ad5565b5b02179055507fd231e56c343322f0d3d33b9249d2cf348f94f8fb054cc595f2f8de12bb48b65960405161215e90613ad6565b60405180910390a15b8080612172906130af565b915050612070565b506121bb565b6040517f08c379a00000000000000000000000000000000000000000000000000000000081526004016121b290613daa565b60405180910390fd5b80806121c6906130af565b915050612014565b506000151581151503612216576040517f08c379a000000000000000000000000000000000000000000000000000000000815260040161220d90613488565b60405180910390fd5b50565b6000600e600083815260200190815260200160002060040160009054906101000a900460ff169050919050565b6000600b54905090565b6000806000905060005b600a5481108015612269575081155b156123b2578360405160200161227f9190613e06565b60405160208183030381529060405280519060200120600960008381526020019081526020016000206001016040516020016122bb9190613ea0565b604051602081830303815290604052805190602001201480156122f4575085600960008381526020019081526020016000206002015410155b1561239e57600191507fdf32908670690790c0cdc194198e1e1b76586f0a602d47d4e7a0ac8d8ad74f5e600960008381526020019081526020016000206001016040516020016123449190613ea0565b604051602081830303815290604052805190602001208560405160200161236b9190613e06565b604051602081830303815290604052805190602001208360405161239193929190613ed0565b60405180910390a16123ad565b80806123a9906130af565b9150505b61225a565b811561244e577feb7115a99b4ff3975015662e8f8d0434763af973215290ec6d1f8068233ff79f6040516123e590613f53565b60405180910390a160056009600083815260200190815260200160002060040160006101000a81548160ff0219169083600881111561242757612426612ad5565b5b0217905550600b600081548092919061243f906130af565b91905055508092505050612489565b6040517f08c379a000000000000000000000000000000000000000000000000000000000815260040161248090613fbf565b60405180910390fd5b9392505050565b60046020528060005260406000206000915090508060000154908060010180546124b99061304f565b80601f01602080910402602001604051908101604052809291908181526020018280546124e59061304f565b80156125325780601f1061250757610100808354040283529160200191612532565b820191906000526020600020905b81548152906001019060200180831161251557829003601f168201915b50505050509080600201549080600301805461254d9061304f565b80601f01602080910402602001604051908101604052809291908181526020018280546125799061304f565b80156125c65780601f1061259b576101008083540402835291602001916125c6565b820191906000526020600020905b8154815290600101906020018083116125a957829003601f168201915b5050505050908060040160009054906101000a900460ff16905085565b6125eb612961565b60008054906101000a900473ffffffffffffffffffffffffffffffffffffffff1673ffffffffffffffffffffffffffffffffffffffff163373ffffffffffffffffffffffffffffffffffffffff1614612679576040517f08c379a00000000000000000000000000000000000000000000000000000000081526004016126709061369e565b60405180910390fd5b60006040518060a001604052808481526020016040518060400160405280600781526020017f556e6b6e6f776e000000000000000000000000000000000000000000000000008152508152602001600081526020016040518060400160405280600781526020017f756e6b6e6f776e0000000000000000000000000000000000000000000000000081525081526020016000600881111561271d5761271c612ad5565b5b81525090508060046000600654815260200190815260200160002060008201518160000155602082015181600101908161275791906134a8565b5060408201518160020155606082015181600301908161277791906134a8565b5060808201518160040160006101000a81548160ff021916908360088111156127a3576127a2612ad5565b5b0217905550905050600660008154809291906127be906130af565b919050555080915050919050565b600960008281526020019081526020016000206000808201600090556001820160006127f89190612921565b60028201600090556003820160006128109190612921565b6004820160006101000a81549060ff0219169055505060008190505b6001600a5461283b9190613fdf565b82101561290557600960006001836128539190614013565b815260200190815260200160002060096000838152602001908152602001600020600082015481600001556001820181600101908161289291906132e8565b5060028201548160020155600382018160030190816128b191906132e8565b506004820160009054906101000a900460ff168160040160006101000a81548160ff021916908360088111156128ea576128e9612ad5565b5b021790555090505081806128fd906130af565b92505061282c565b50600a600081548092919061291990614047565b919050555050565b50805461292d9061304f565b6000825580601f1061293f575061295e565b601f01602090049060005260206000209081019061295d91906129a2565b5b50565b6040518060a00160405280600081526020016060815260200160008152602001606081526020016000600881111561299c5761299b612ad5565b5b81525090565b5b808211156129bb5760008160009055506001016129a3565b5090565b6000604051905090565b600080fd5b600080fd5b6000819050919050565b6129e6816129d3565b81146129f157600080fd5b50565b600081359050612a03816129dd565b92915050565b600060208284031215612a1f57612a1e6129c9565b5b6000612a2d848285016129f4565b91505092915050565b612a3f816129d3565b82525050565b600081519050919050565b600082825260208201905092915050565b60005b83811015612a7f578082015181840152602081019050612a64565b60008484015250505050565b6000601f19601f8301169050919050565b6000612aa782612a45565b612ab18185612a50565b9350612ac1818560208601612a61565b612aca81612a8b565b840191505092915050565b7f4e487b7100000000000000000000000000000000000000000000000000000000600052602160045260246000fd5b60098110612b1557612b14612ad5565b5b50565b6000819050612b2682612b04565b919050565b6000612b3682612b18565b9050919050565b612b4681612b2b565b82525050565b600060a082019050612b616000830188612a36565b8181036020830152612b738187612a9c565b9050612b826040830186612a36565b8181036060830152612b948185612a9c565b9050612ba36080830184612b3d565b9695505050505050565b6000602082019050612bc26000830184612b3d565b92915050565b6000602082019050612bdd6000830184612a36565b92915050565b600073ffffffffffffffffffffffffffffffffffffffff82169050919050565b6000612c0e82612be3565b9050919050565b612c1e81612c03565b82525050565b6000602082019050612c396000830184612c15565b92915050565b612c4881612c03565b8114612c5357600080fd5b50565b600081359050612c6581612c3f565b92915050565b600060208284031215612c8157612c806129c9565b5b6000612c8f84828501612c56565b91505092915050565b60006020820190508181036000830152612cb28184612a9c565b905092915050565b600080fd5b600080fd5b7f4e487b7100000000000000000000000000000000000000000000000000000000600052604160045260246000fd5b612cfc82612a8b565b810181811067ffffffffffffffff82111715612d1b57612d1a612cc4565b5b80604052505050565b6000612d2e6129bf565b9050612d3a8282612cf3565b919050565b600067ffffffffffffffff821115612d5a57612d59612cc4565b5b612d6382612a8b565b9050602081019050919050565b82818337600083830152505050565b6000612d92612d8d84612d3f565b612d24565b905082815260208101848484011115612dae57612dad612cbf565b5b612db9848285612d70565b509392505050565b600082601f830112612dd657612dd5612cba565b5b8135612de6848260208601612d7f565b91505092915050565b60008060008060808587031215612e0957612e086129c9565b5b6000612e17878288016129f4565b9450506020612e28878288016129f4565b935050604085013567ffffffffffffffff811115612e4957612e486129ce565b5b612e5587828801612dc1565b925050606085013567ffffffffffffffff811115612e7657612e756129ce565b5b612e8287828801612dc1565b91505092959194509250565b600080600060608486031215612ea757612ea66129c9565b5b6000612eb5868287016129f4565b935050602084013567ffffffffffffffff811115612ed657612ed56129ce565b5b612ee286828701612dc1565b925050604084013567ffffffffffffffff811115612f0357612f026129ce565b5b612f0f86828701612dc1565b9150509250925092565b612f22816129d3565b82525050565b600082825260208201905092915050565b6000612f4482612a45565b612f4e8185612f28565b9350612f5e818560208601612a61565b612f6781612a8b565b840191505092915050565b612f7b81612b2b565b82525050565b600060a083016000830151612f996000860182612f19565b5060208301518482036020860152612fb18282612f39565b9150506040830151612fc66040860182612f19565b5060608301518482036060860152612fde8282612f39565b9150506080830151612ff36080860182612f72565b508091505092915050565b600060208201905081810360008301526130188184612f81565b905092915050565b7f4e487b7100000000000000000000000000000000000000000000000000000000600052602260045260246000fd5b6000600282049050600182168061306757607f821691505b60208210810361307a57613079613020565b5b50919050565b7f4e487b7100000000000000000000000000000000000000000000000000000000600052601160045260246000fd5b60006130ba826129d3565b91507fffffffffffffffffffffffffffffffffffffffffffffffffffffffffffffffff82036130ec576130eb613080565b5b600182019050919050565b7f4e487b7100000000000000000000000000000000000000000000000000000000600052603260045260246000fd5b6000815490506131358161304f565b9050919050565b60008190508160005260206000209050919050565b60006020601f8301049050919050565b600082821b905092915050565b60006008830261319e7fffffffffffffffffffffffffffffffffffffffffffffffffffffffffffffffff82613161565b6131a88683613161565b95508019841693508086168417925050509392505050565b6000819050919050565b60006131e56131e06131db846129d3565b6131c0565b6129d3565b9050919050565b6000819050919050565b6131ff836131ca565b61321361320b826131ec565b84845461316e565b825550505050565b600090565b61322861321b565b6132338184846131f6565b505050565b5b818110156132575761324c600082613220565b600181019050613239565b5050565b601f82111561329c5761326d8161313c565b61327684613151565b81016020851015613285578190505b61329961329185613151565b830182613238565b50505b505050565b600082821c905092915050565b60006132bf600019846008026132a1565b1980831691505092915050565b60006132d883836132ae565b9150826002028217905092915050565b8181036132f65750506133ce565b6132ff82613126565b67ffffffffffffffff81111561331857613317612cc4565b5b613322825461304f565b61332d82828561325b565b6000601f83116001811461335c576000841561334a578287015490505b61335485826132cc565b8655506133c7565b601f19841661336a8761313c565b96506133758661313c565b60005b8281101561339d57848901548255600182019150600185019450602081019050613378565b868310156133ba57848901546133b6601f8916826132ae565b8355505b6001600288020188555050505b5050505050505b565b7f546f546865486f73706974616c00000000000000000000000000000000000000600082015250565b6000613406600d83612a50565b9150613411826133d0565b602082019050919050565b60006020820190508181036000830152613435816133f9565b9050919050565b7f4e6f7420746865207269676874205472616e73706f7274657200000000000000600082015250565b6000613472601983612a50565b915061347d8261343c565b602082019050919050565b600060208201905081810360008301526134a181613465565b9050919050565b6134b182612a45565b67ffffffffffffffff8111156134ca576134c9612cc4565b5b6134d4825461304f565b6134df82828561325b565b600060209050601f8311600181146135125760008415613500578287015190505b61350a85826132cc565b865550613572565b601f1984166135208661313c565b60005b8281101561354857848901518255600182019150602085019450602081019050613523565b868310156135655784890151613561601f8916826132ae565b8355505b6001600288020188555050505b505050505050565b7f74686520426c6f6f64206973207374696c6c204f6e20547261636b0000000000600082015250565b60006135b0601b83612a50565b91506135bb8261357a565b602082019050919050565b600060208201905081810360008301526135df816135a3565b9050919050565b7f5265636569766564000000000000000000000000000000000000000000000000600082015250565b600061361c600883612a50565b9150613627826135e6565b602082019050919050565b6000602082019050818103600083015261364b8161360f565b9050919050565b7f4e6f742070686c65626f746f6d69737400000000000000000000000000000000600082015250565b6000613688601083612a50565b915061369382613652565b602082019050919050565b600060208201905081810360008301526136b78161367b565b9050919050565b7f7265616479000000000000000000000000000000000000000000000000000000600082015250565b60006136f4600583612a50565b91506136ff826136be565b602082019050919050565b60006020820190508181036000830152613723816136e7565b9050919050565b7f446f6e6500000000000000000000000000000000000000000000000000000000600082015250565b6000613760600483612a50565b915061376b8261372a565b602082019050919050565b6000602082019050818103600083015261378f81613753565b9050919050565b7f4148000000000000000000000000000000000000000000000000000000000000600082015250565b60006137cc600283612a50565b91506137d782613796565b602082019050919050565b600060208201905081810360008301526137fb816137bf565b9050919050565b7f646f63746f720000000000000000000000000000000000000000000000000000600082015250565b6000613838600683612a50565b915061384382613802565b602082019050919050565b600060208201905081810360008301526138678161382b565b9050919050565b7f506f736974697665000000000000000000000000000000000000000000000000600082015250565b60006138a4600883612a50565b91506138af8261386e565b602082019050919050565b600060208201905081810360008301526138d381613897565b9050919050565b7f547261636b420000000000000000000000000000000000000000000000000000600082015250565b6000613910600683612a50565b915061391b826138da565b602082019050919050565b6000602082019050818103600083015261393f81613903565b9050919050565b7f4142000000000000000000000000000000000000000000000000000000000000600082015250565b600061397c600283612a50565b915061398782613946565b602082019050919050565b600060208201905081810360008301526139ab8161396f565b9050919050565b7f546563686e696369616e00000000000000000000000000000000000000000000600082015250565b60006139e8600a83612a50565b91506139f3826139b2565b602082019050919050565b60006020820190508181036000830152613a17816139db565b9050919050565b7f4e6f6e6500000000000000000000000000000000000000000000000000000000600082015250565b6000613a54600483612a50565b9150613a5f82613a1e565b602082019050919050565b60006020820190508181036000830152613a8381613a47565b9050919050565b7f456e6444656c6976657279000000000000000000000000000000000000000000600082015250565b6000613ac0600b83612a50565b9150613acb82613a8a565b602082019050919050565b60006020820190508181036000830152613aef81613ab3565b9050919050565b7f4e6f7420746865207269676874207472616e73706f7274657200000000000000600082015250565b6000613b2c601983612a50565b9150613b3782613af6565b602082019050919050565b60006020820190508181036000830152613b5b81613b1f565b9050919050565b7f4e6f74207472616e73706f727465720000000000000000000000000000000000600082015250565b6000613b98600f83612a50565b9150613ba382613b62565b602082019050919050565b60006020820190508181036000830152613bc781613b8b565b9050919050565b7f4f6e20547261636b000000000000000000000000000000000000000000000000600082015250565b6000613c04600883612a50565b9150613c0f82613bce565b602082019050919050565b60006020820190508181036000830152613c3381613bf7565b9050919050565b7f74686520426c6f6f64206973206e6f7420726561647920666f722044656c696560008201527f7665727900000000000000000000000000000000000000000000000000000000602082015250565b6000613c96602483612a50565b9150613ca182613c3a565b604082019050919050565b60006020820190508181036000830152613cc581613c89565b9050919050565b7f6e6f7420746865207269676874207472616e73706f7274657200000000000000600082015250565b6000613d02601983612a50565b9150613d0d82613ccc565b602082019050919050565b60006020820190508181036000830152613d3181613cf5565b9050919050565b7f74686520426c6f6f642064656c697665727920697320616c726561647920646f60008201527f6e65000000000000000000000000000000000000000000000000000000000000602082015250565b6000613d94602283612a50565b9150613d9f82613d38565b604082019050919050565b60006020820190508181036000830152613dc381613d87565b9050919050565b600081905092915050565b6000613de082612a45565b613dea8185613dca565b9350613dfa818560208601612a61565b80840191505092915050565b6000613e128284613dd5565b915081905092915050565b60008154613e2a8161304f565b613e348186613dca565b94506001821660008114613e4f5760018114613e6457613e97565b60ff1983168652811515820286019350613e97565b613e6d8561313c565b60005b83811015613e8f57815481890152600182019150602081019050613e70565b838801955050505b50505092915050565b6000613eac8284613e1d565b915081905092915050565b6000819050919050565b613eca81613eb7565b82525050565b6000606082019050613ee56000830186613ec1565b613ef26020830185613ec1565b613eff6040830184612a36565b949350505050565b7f666f756e64000000000000000000000000000000000000000000000000000000600082015250565b6000613f3d600583612a50565b9150613f4882613f07565b602082019050919050565b60006020820190508181036000830152613f6c81613f30565b9050919050565b7f626c6f6f64206e6f7420666f756e640000000000000000000000000000000000600082015250565b6000613fa9600f83612a50565b9150613fb482613f73565b602082019050919050565b60006020820190508181036000830152613fd881613f9c565b9050919050565b6000613fea826129d3565b9150613ff5836129d3565b925082820390508181111561400d5761400c613080565b5b92915050565b600061401e826129d3565b9150614029836129d3565b925082820190508082111561404157614040613080565b5b92915050565b6000614052826129d3565b91506000820361406557614064613080565b5b60018203905091905056fe596f757220426c6f6f6420686173206172726976656420746f2074686520486f73706974616c596f757220426c6f6f642069732052656365697665642062792074686520546563686e696369616e20616e64206e6565647320746f20626520746573746564206669727374596f757220426c6f6f6420697320446f6e6174656420616e642073617665642061206c6966652e20506c65617365206d616b652073757265207468617420796f752077696c6c20646f6e617465206f6e636520616761696e596f757220426c6f6f64206973206f6e20747261636b20746f2074686520426c6f6f642042616e6b596f757220426c6f6f6420686173206172726976656420746f2074686520426c6f6f642042616e6b596f757220426c6f6f6420697320756e6465722074657374732e204966207468697320737461746520646f65736e2774206368616e67652077697468696e2061746c65617374203520646179732c20796f752062657474657220636865636b206120646f63746f722e596f757220426c6f6f642069732054657374656420506f73697469766520546f20626520446f6e61746564596f757220426c6f6f64206973206f6e20747261636b20746f2074686520486f73706974616ca264697066735822122074b44592cebd36d08d1dedc474bcfbbafa3db9b700fcd9db3d4c045b9eb4954f64736f6c63430008110033",
  "immutableReferences": {},
  "source": "pragma solidity ^0.8.17;\r\nimport './Technician.sol';\r\nimport './Phlebotomist.sol';\r\nimport './Transporter.sol';\r\nimport './Doctor.sol';\r\nimport './Donor.sol';\r\n\r\n\r\n\r\n\r\ncontract Production is   Phlebotomist, Transporter,Technician,Doctor{\r\n    enum BloodStatus { ReadyForDelivery,  OnTrack, EndDelivery, Received,ReadyToBeDonated,ApprovedToBeDonated,OnTrackToTheHospital,ArrivedToTheHospital,Donated}\r\n    struct BloodUnit {\r\n        uint DonnerId;\r\n        string Typee;\r\n        uint Amount;\r\n        string ExpiryDate;\r\n        Production.BloodStatus  _status; \r\n        \r\n    }\r\n   // address PhAdress;\r\n   /* function SetPhlebotomist() public{\r\n         PhAdress = Phlebotomist.getAdress();\r\n    }*/\r\n    /*function getPh()public view returns(address){\r\n        return(PhAdress);\r\n\r\n    }*/\r\n    event ready(string _etat);\r\n    event OnTrack(string _etat);\r\n    event EndDelivery(string _etat);\r\n    event Received(string _etat);\r\n    mapping (uint => BloodUnit) public units;\r\n    address [] public transporters;\r\n     uint bloodCount=0;\r\n    \r\n    \r\n     function CollectBloodUnit (uint donner )public isPhlebotomist returns (BloodUnit memory) {\r\n         //BloodUnit  B0=BloodUnit(0,0,0,0, BloodStatus.NotReady );\r\n         //B0._status=BloodStatus.NotReady;\r\n          \r\n\r\n         BloodUnit memory B0= BloodUnit({\r\n            DonnerId: donner,\r\n            Typee: \"Unknown\" ,\r\n            Amount : 0,\r\n            ExpiryDate : \"unknown\" ,\r\n            _status : BloodStatus.ReadyForDelivery\r\n\r\n\r\n         });\r\n            units[bloodCount]= B0;\r\n            bloodCount++;\r\n            \r\n        return(B0);\r\n                 \r\n     }\r\n     function getCount() public view returns(uint){return(bloodCount);}\r\n     function getiD (uint _index) public view returns (uint){\r\n        return units[_index].DonnerId;\r\n     }\r\n     function getState(uint _index) public view returns(BloodStatus){\r\n        return units[_index]._status;\r\n     }\r\n      function getStateAnalyzed(uint _index) public view returns(BloodStatus){\r\n        return Analyzed[_index]._status;\r\n     }\r\n     function getStateOnDeliever(uint _index) public view returns(BloodStatus){\r\n        return OnDelievery[_index]._status;\r\n     }\r\n     function getStateHospital(uint _index) public view returns(BloodStatus){\r\n        return ToHospital[_index]._status;\r\n     }\r\n     function getStateDonation(uint _index) public view returns(BloodStatus){\r\n        return Donated[_index]._status;\r\n     }\r\n     \r\n\r\n     function AssignTransporter(address _transporter) public isPhlebotomist{\r\n         \r\n         transporters.push(_transporter);\r\n         emit ready(\"ready\");\r\n     }\r\n     \r\n     mapping (uint => BloodUnit) public OnDelievery;\r\n     uint OnDelieverycount=0;\r\n    \r\n     function Start_Delivery() public isTransporter {\r\n         bool test=false;\r\n        for (uint j=0;j<=bloodCount;j++){\r\n            if(units[j]._status==BloodStatus.ReadyForDelivery)  {  \r\n                for(uint i=0;i<transporters.length;i++){\r\n                    if(msg.sender==transporters[i]){\r\n                        test=true;\r\n               \r\n                    \r\n                        units[j]._status=BloodStatus.OnTrack;\r\n                        //delete units[j];\r\n                        OnDelievery[OnDelieverycount]=units[j];\r\n                        //delete units[j];\r\n                        \r\n                        OnDelieverycount++;\r\n                         emit OnTrack(\"On Track\");\r\n                     } }    }\r\n                       else {\r\n            revert('the Blood is not ready for Delievery');                  \r\n                }     }\r\n                if (test){\r\n\r\n        \r\n        bloodCount=0;}\r\n        else {revert('not the right transporter');}}\r\n\r\n    function End_Delivery() public {\r\n        bool test=false;\r\n        for (uint j=0; j<OnDelieverycount;j++){\r\n        if(OnDelievery[j]._status==BloodStatus.OnTrack)  {  \r\n            for(uint i=0;i<transporters.length;i++){\r\n                    if(msg.sender==transporters[i]){\r\n                        test=true;\r\n         \r\n                OnDelievery[j]._status=BloodStatus.EndDelivery;\r\n                \r\n\r\n                emit EndDelivery(\"EndDelivery\");\r\n            }}}\r\n            \r\n         \r\n          else {\r\n            revert('the Blood delivery is already done');\r\n        }\r\n        }\r\n        if(test==false){revert('Not the right Transporter');}\r\n        }\r\n        \r\n\r\n    function BloodReceived() public {\r\n        for(uint j=0; j<OnDelieverycount;j++){\r\n         if (OnDelievery[j]._status==BloodStatus.EndDelivery) {\r\n             OnDelievery[j]._status=BloodStatus.Received; \r\n             delete OnDelievery[j];\r\n\r\n              }\r\n        else {\r\n            revert('the Blood is still On Track');\r\n        }\r\n        emit Received(\"Received\"); \r\n\r\n    }\r\n    OnDelieverycount=0;}\r\n    mapping (uint => BloodUnit) public Analyzed;\r\n    uint analyzedCount=0;\r\n    \r\n    function CreateBloodUnit(uint _donner,uint _amount, string memory _expiry ,string memory  _type) public{\r\n         BloodUnit memory B0= BloodUnit({\r\n            DonnerId: _donner,\r\n            Typee: _type ,\r\n            Amount : _amount,\r\n            ExpiryDate : _expiry,\r\n            _status : BloodStatus.ReadyToBeDonated});\r\n        Analyzed[analyzedCount]=B0;\r\n        analyzedCount++;\r\n        \r\n        \r\n    }\r\n    event order( string ty);\r\n    function StateInUnits(uint _Id) public view returns (uint){\r\n        bool test= false;\r\n        uint i=0;\r\n        while(i<bloodCount && !test ){\r\n            if(_Id==units[i].DonnerId){\r\n                test=true;\r\n            } else{\r\n                i++;\r\n            }\r\n        }\r\n        if(test){\r\n       return((i));}\r\n       else {return(9999);}\r\n\r\n    }\r\n    function StateInOnDeliver(uint _Id) public view  returns(uint){\r\n        bool test= false;\r\n        uint i=0;\r\n        while(i<OnDelieverycount && !test ){\r\n            if(_Id==OnDelievery[i].DonnerId){\r\n                test=true;\r\n            } else{\r\n                i++;\r\n            }\r\n        }\r\n       if(test){\r\n       return(i);}\r\n       else {return(9999);}\r\n\r\n    }\r\n    function StateInAnalyzed(uint _Id) public view  returns(uint){\r\n        bool test= false;\r\n        uint i=0;\r\n        while(i<analyzedCount && !test ){\r\n            if(_Id==Analyzed[i].DonnerId){\r\n                test=true;\r\n            } else{\r\n                i++;\r\n            }\r\n        }\r\n        if(test){\r\n       return(i);}\r\n       else {return(9999);}\r\n\r\n    }\r\n      function StateToHospital(uint _Id) public view  returns(uint){\r\n        bool test= false;\r\n        uint i=0;\r\n        while(i<ToHospitalCount && !test ){\r\n            if(_Id==ToHospital[i].DonnerId){\r\n                test=true;\r\n            } else{\r\n                i++;\r\n            }\r\n        }\r\n        if(test){\r\n       return(i);}\r\n       else {return(9999);}\r\n\r\n    }\r\n      function StateDonated(uint _Id) public view returns(uint){\r\n        bool test= false;\r\n        uint i=0;\r\n        while(i<DonatedCount && !test ){\r\n            if(_Id==Donated[i].DonnerId){\r\n                test=true;\r\n            } else{\r\n                i++;\r\n            }\r\n        }\r\n        if(test){\r\n       return(i);}\r\n       else {return(9999);}\r\n\r\n    }\r\n    event dd(string d);\r\n    event pos(string p);\r\n     event Done(string p);\r\n      event None(string p);\r\n    function States( uint  _Id) public returns ( string memory){\r\n        uint UnitsTest= StateInUnits(_Id);\r\n        uint AnalyzedTest= StateInAnalyzed(_Id);\r\n        uint OnDeliverTest= StateInOnDeliver(_Id);\r\n        uint DonatedTest=StateDonated(_Id);\r\n        uint HospitalTest= StateToHospital(_Id);\r\n         if(DonatedTest != 9999){emit Done(\"Done\");\r\n            return(\"Your Blood is Donated and saved a life. Please make sure that you will donate once again\");}\r\n         else if(HospitalTest !=9999){\r\n            if(ToHospital[HospitalTest]._status==BloodStatus.OnTrackToTheHospital){return(\"Your Blood is on track to the Hospital\");}\r\n            else{emit order(\"AH\");\r\n                return(\"Your Blood has arrived to the Hospital\");}\r\n        }\r\n        else if(AnalyzedTest != 9999 ){\r\n            if(Analyzed[AnalyzedTest]._status==BloodStatus.ApprovedToBeDonated){emit dd(\"doctor\");\r\n                return (\"A doctor has ordered your Blood\");}\r\n            else{emit pos(\"Positive\");\r\n                return(\"Your Blood is Tested Positive To be Donated\");}\r\n        }\r\n        \r\n        \r\n         else if(OnDeliverTest != 9999) {\r\n            if(OnDelievery[OnDelieverycount]._status==BloodStatus.OnTrack){emit OnTrack(\"TrackB\");\r\n                return(\"Your Blood is on track to the Blood Bank\");\r\n            }\r\n            else if(OnDelievery[OnDelieverycount]._status==BloodStatus.EndDelivery){\r\n                emit EndDelivery(\"AB\"); \r\n                return(\"Your Blood has arrived to the Blood Bank\");}\r\n            else{emit Received(\"Technician\");\r\n                return(\"Your Blood is Received by the Technician and needs to be tested first\");}\r\n        }\r\n        else if(UnitsTest != 9999) {emit ready(\"ready\");\r\n        return(\"Ready For Delivery\");\r\n        }\r\n        else{\r\n        emit None(\"None\");\r\n        return(\"Your Blood is under tests. If this state doesn't change within atleast 5 days, you better check a doctor.\");\r\n        }\r\n\r\n        \r\n    }\r\n\r\n     \r\n\r\n\r\nevent compare(bytes32 h1, bytes32 h2 , uint ii);\r\nuint Approved=0;\r\n  function Approve(uint _amount,string memory _date  ,string memory _type) public   returns(uint) {\r\n    bool test = false;\r\n    uint i = 0;\r\n    \r\n    \r\n    while (i < analyzedCount && !test) {\r\n       \r\n        if (keccak256(abi.encodePacked(Analyzed[i].Typee)) ==keccak256(abi.encodePacked( _type)) && Analyzed[i].Amount >= _amount) {\r\n            test = true;\r\n            emit compare(keccak256(abi.encodePacked(Analyzed[i].Typee)),keccak256(abi.encodePacked( _type)), i);\r\n        } else {\r\n            \r\n            i++;}       \r\n    }\r\n    if(test){\r\n      \r\n        emit Received(\"found\");\r\n        Analyzed[i]._status=BloodStatus.ApprovedToBeDonated;  \r\n        Approved++;      \r\n        \r\n        return(i);}\r\n        else{\r\n            revert(\"blood not found\");\r\n        }   \r\n    \r\n }\r\n function getApproved() public view returns(uint) { return(Approved);}\r\n\r\n function DeleteFromAnalyzed(uint i)private {    \r\n    delete Analyzed[i];\r\n    for (uint j =i; i < analyzedCount - 1; i++) {\r\n        Analyzed[j] = Analyzed[j+1];\r\n    }\r\n   analyzedCount--;\r\n }\r\n\r\nmapping(uint => BloodUnit) public  ToHospital;\r\nuint ToHospitalCount=0;\r\n\r\n function DelieverToHospital() public {\r\n    bool test=false;\r\n        for (uint j=0;j<analyzedCount;j++){\r\n            if( Analyzed[j]._status==BloodStatus.ApprovedToBeDonated)  {  \r\n                 for(uint i=0;i<transporters.length;i++){\r\n                    if(msg.sender==transporters[i]){\r\n                        test=true;\r\n              \r\n                        Analyzed[j]._status=BloodStatus.OnTrackToTheHospital;\r\n                        ToHospital[ToHospitalCount]=Analyzed[j];\r\n                        DeleteFromAnalyzed(j);\r\n                        emit OnTrack(\"ToTheHospital\");\r\n                        ToHospitalCount++;}\r\n                                           \r\n                } \r\n                             \r\n         }       }\r\n         if(test==false){revert('Not the right Transporter');}}\r\n        \r\n         \r\n        \r\n        \r\n\r\n    function ArrivedToTheHospital() public {\r\n        bool test=false;\r\n        for (uint j=0; j<ToHospitalCount;j++){\r\n        if(ToHospital[j]._status==BloodStatus.OnTrackToTheHospital)  {  \r\n             for(uint i=0;i<transporters.length;i++){\r\n                    if(msg.sender==transporters[i]){\r\n                        test=true;\r\n         \r\n                ToHospital[j]._status=BloodStatus.ArrivedToTheHospital;\r\n                \r\n\r\n                emit EndDelivery(\"EndDelivery\");\r\n            }\r\n            /* else {\r\n            revert('the Blood delivery is already done');\r\n        }*/\r\n           \r\n         }}}\r\n         if(test==false){revert('Not the right transporter');}}\r\n        \r\n        //ToHospitalCount=0;\r\n        \r\n\r\n        mapping (uint=>BloodUnit) Donated;\r\n        uint DonatedCount=0;\r\n        \r\n        \r\n\r\n    function Donation (uint _id) public {\r\n        BloodUnit memory B0= BloodUnit({\r\n            DonnerId: _id,\r\n            Typee: \"__\" ,\r\n            Amount : 0,\r\n            ExpiryDate :\"__\",\r\n            _status : BloodStatus.Donated});\r\n        Donated[DonatedCount]=B0;\r\n        DonatedCount++;\r\n }\r\n}\r\n\r\n\r\n",
  "sourcePath": "C:\\Users\\jaoua\\Documents\\truffle\\contracts\\Production.sol",
  "compiler": {
    "name": "solc",
    "version": "0.8.17+commit.8df45f5f.Emscripten.clang"
  },
  "schemaVersion": "3.4.11",
  "updatedAt": "2023-05-03T00:47:15.089Z",
  "networkType": "ethereum",
  "devdoc": {
    "kind": "dev",
    "methods": {},
    "version": 1
  },
  "userdoc": {
    "kind": "user",
    "methods": {},
    "version": 1
  }
}