{
  "contractName": "Transporter",
  "abi": [
    {
      "inputs": [],
      "stateMutability": "nonpayable",
      "type": "constructor"
    },
    {
      "inputs": [],
      "name": "getAdresss",
      "outputs": [
        {
          "internalType": "address",
          "name": "",
          "type": "address"
        }
      ],
      "stateMutability": "view",
      "type": "function",
      "constant": true
    }
  ],
  "bytecode": "0x608060405234801561001057600080fd5b50336000806101000a81548173ffffffffffffffffffffffffffffffffffffffff021916908373ffffffffffffffffffffffffffffffffffffffff16021790555060fc8061005f6000396000f3fe6080604052348015600f57600080fd5b506004361060285760003560e01c806341b4d3e114602d575b600080fd5b60336047565b604051603e919060ad565b60405180910390f35b60008060009054906101000a900473ffffffffffffffffffffffffffffffffffffffff16905090565b600073ffffffffffffffffffffffffffffffffffffffff82169050919050565b60006099826070565b9050919050565b60a7816090565b82525050565b600060208201905060c0600083018460a0565b9291505056fea2646970667358221220c1adb11c085139288b344a0a1f2fa42424264b51ae5d83e829cdd5438d882b4464736f6c63430008110033",
  "immutableReferences": {},
  "source": "pragma solidity ^0.8.17;\r\ncontract Transporter\r\n {\r\n   \r\n    address transporter;\r\n    constructor(){\r\n        transporter= msg.sender ; \r\n    }\r\n    modifier isTransporter (){\r\n        require(msg.sender == transporter,\"Not transporter\");\r\n        _;\r\n\r\n    }\r\n    function getAdresss() public view returns (address){\r\n        return(transporter);\r\n    }\r\n    \r\n   \r\n    \r\n}",
  "sourcePath": "C:\\Users\\jaoua\\Documents\\truffle\\contracts\\Transporter.sol",
  "compiler": {
    "name": "solc",
    "version": "0.8.17+commit.8df45f5f.Emscripten.clang"
  },
  "schemaVersion": "3.4.11",
  "updatedAt": "2023-04-18T03:26:28.532Z",
  "networkType": "ethereum",
  "devdoc": {
    "kind": "dev",
    "methods": {},
    "version": 1
  },
  "userdoc": {
    "kind": "user",
    "methods": {},
    "version": 1
  }
}