{
  "contractName": "Administrator",
  "abi": [
    {
      "inputs": [],
      "stateMutability": "nonpayable",
      "type": "constructor"
    },
    {
      "inputs": [],
      "name": "getAdress",
      "outputs": [
        {
          "internalType": "address",
          "name": "",
          "type": "address"
        }
      ],
      "stateMutability": "view",
      "type": "function"
    }
  ],
  "bytecode": "0x608060405234801561001057600080fd5b50336000806101000a81548173ffffffffffffffffffffffffffffffffffffffff021916908373ffffffffffffffffffffffffffffffffffffffff16021790555060fc8061005f6000396000f3fe6080604052348015600f57600080fd5b506004361060285760003560e01c80636b37d36214602d575b600080fd5b60336047565b604051603e919060ad565b60405180910390f35b60008060009054906101000a900473ffffffffffffffffffffffffffffffffffffffff16905090565b600073ffffffffffffffffffffffffffffffffffffffff82169050919050565b60006099826070565b9050919050565b60a7816090565b82525050565b600060208201905060c0600083018460a0565b9291505056fea2646970667358221220a6be3c35c1f2512b6a38e7ea4c221c6b208a49fe4673d4d9fbee03d247e869a364736f6c63430008110033",
  "immutableReferences": {},
  "source": "pragma solidity ^0.8.17;\r\ncontract Administrator{\r\n    address administrator ;\r\n\r\n    constructor(){\r\n        administrator= msg.sender ; \r\n    }\r\n    modifier isAdministrator (){\r\n        require(msg.sender == administrator,\"Not administrator\");\r\n        _;\r\n\r\n    }\r\n    function getAdress() public view returns (address){\r\n        return(administrator);\r\n    }\r\n    \r\n   \r\n    \r\n}",
  "sourcePath": "C:\\Users\\jaoua\\Documents\\truffle\\contracts\\Administrator.sol",
  "compiler": {
    "name": "solc",
    "version": "0.8.17+commit.8df45f5f.Emscripten.clang"
  },
  "schemaVersion": "3.4.11",
  "updatedAt": "2023-03-23T16:14:32.968Z",
  "devdoc": {
    "kind": "dev",
    "methods": {},
    "version": 1
  },
  "userdoc": {
    "kind": "user",
    "methods": {},
    "version": 1
  }
}