{
  "contractName": "Phlebotomist",
  "abi": [
    {
      "inputs": [],
      "stateMutability": "nonpayable",
      "type": "constructor"
    },
    {
      "inputs": [],
      "name": "getAdress",
      "outputs": [
        {
          "internalType": "address",
          "name": "",
          "type": "address"
        }
      ],
      "stateMutability": "view",
      "type": "function",
      "constant": true
    }
  ],
  "bytecode": "0x608060405234801561001057600080fd5b50336000806101000a81548173ffffffffffffffffffffffffffffffffffffffff021916908373ffffffffffffffffffffffffffffffffffffffff16021790555060fc8061005f6000396000f3fe6080604052348015600f57600080fd5b506004361060285760003560e01c80636b37d36214602d575b600080fd5b60336047565b604051603e919060ad565b60405180910390f35b60008060009054906101000a900473ffffffffffffffffffffffffffffffffffffffff16905090565b600073ffffffffffffffffffffffffffffffffffffffff82169050919050565b60006099826070565b9050919050565b60a7816090565b82525050565b600060208201905060c0600083018460a0565b9291505056fea26469706673582212204f3111b99a83fd0d25599cb53ed774b7c31e180ade646ba98630feedf5dc5ec064736f6c63430008110033",
  "immutableReferences": {},
  "source": "pragma solidity ^0.8.17;\r\ncontract Phlebotomist\r\n {\r\n   \r\n    address phlebotomist;\r\n    constructor(){\r\n        phlebotomist= msg.sender ; \r\n    }\r\n    modifier isPhlebotomist (){\r\n        require(msg.sender == phlebotomist,\"Not phlebotomist\");\r\n        _;\r\n\r\n    }\r\n    function getAdress() public view returns (address){\r\n        return(phlebotomist);\r\n    }\r\n    \r\n   \r\n    \r\n}\r\n",
  "sourcePath": "C:\\Users\\jaoua\\Documents\\truffle\\contracts\\Phlebotomist.sol",
  "compiler": {
    "name": "solc",
    "version": "0.8.17+commit.8df45f5f.Emscripten.clang"
  },
  "schemaVersion": "3.4.11",
  "updatedAt": "2023-03-23T16:14:36.459Z",
  "networkType": "ethereum",
  "devdoc": {
    "kind": "dev",
    "methods": {},
    "version": 1
  },
  "userdoc": {
    "kind": "user",
    "methods": {},
    "version": 1
  }
}