{
  "contractName": "Production",
  "abi": [
    {
      "anonymous": false,
      "inputs": [
        {
          "indexed": false,
          "internalType": "string",
          "name": "_etat",
          "type": "string"
        }
      ],
      "name": "EndDelivery",
      "type": "event"
    },
    {
      "anonymous": false,
      "inputs": [
        {
          "indexed": false,
          "internalType": "string",
          "name": "_etat",
          "type": "string"
        }
      ],
      "name": "OnTrack",
      "type": "event"
    },
    {
      "anonymous": false,
      "inputs": [
        {
          "indexed": false,
          "internalType": "string",
          "name": "_etat",
          "type": "string"
        }
      ],
      "name": "Received",
      "type": "event"
    },
    {
      "anonymous": false,
      "inputs": [
        {
          "indexed": false,
          "internalType": "string",
          "name": "_etat",
          "type": "string"
        }
      ],
      "name": "ready",
      "type": "event"
    },
    {
      "inputs": [
        {
          "internalType": "uint256",
          "name": "",
          "type": "uint256"
        }
      ],
      "name": "Analyzed",
      "outputs": [
        {
          "internalType": "uint256",
          "name": "DonnerId",
          "type": "uint256"
        },
        {
          "internalType": "string",
          "name": "Typee",
          "type": "string"
        },
        {
          "internalType": "uint256",
          "name": "Amount",
          "type": "uint256"
        },
        {
          "internalType": "uint256",
          "name": "ExpiryDate",
          "type": "uint256"
        },
        {
          "internalType": "enum Production.BloodStatus",
          "name": "_status",
          "type": "uint8"
        }
      ],
      "stateMutability": "view",
      "type": "function",
      "constant": true
    },
    {
      "inputs": [],
      "name": "getAdress",
      "outputs": [
        {
          "internalType": "address",
          "name": "",
          "type": "address"
        }
      ],
      "stateMutability": "view",
      "type": "function",
      "constant": true
    },
    {
      "inputs": [],
      "name": "getAdresss",
      "outputs": [
        {
          "internalType": "address",
          "name": "",
          "type": "address"
        }
      ],
      "stateMutability": "view",
      "type": "function",
      "constant": true
    },
    {
      "inputs": [
        {
          "internalType": "uint256",
          "name": "",
          "type": "uint256"
        }
      ],
      "name": "transporters",
      "outputs": [
        {
          "internalType": "address",
          "name": "",
          "type": "address"
        }
      ],
      "stateMutability": "view",
      "type": "function",
      "constant": true
    },
    {
      "inputs": [
        {
          "internalType": "uint256",
          "name": "",
          "type": "uint256"
        }
      ],
      "name": "units",
      "outputs": [
        {
          "internalType": "uint256",
          "name": "DonnerId",
          "type": "uint256"
        },
        {
          "internalType": "string",
          "name": "Typee",
          "type": "string"
        },
        {
          "internalType": "uint256",
          "name": "Amount",
          "type": "uint256"
        },
        {
          "internalType": "uint256",
          "name": "ExpiryDate",
          "type": "uint256"
        },
        {
          "internalType": "enum Production.BloodStatus",
          "name": "_status",
          "type": "uint8"
        }
      ],
      "stateMutability": "view",
      "type": "function",
      "constant": true
    },
    {
      "inputs": [
        {
          "internalType": "uint256",
          "name": "donner",
          "type": "uint256"
        }
      ],
      "name": "CollectBloodUnit",
      "outputs": [
        {
          "components": [
            {
              "internalType": "uint256",
              "name": "DonnerId",
              "type": "uint256"
            },
            {
              "internalType": "string",
              "name": "Typee",
              "type": "string"
            },
            {
              "internalType": "uint256",
              "name": "Amount",
              "type": "uint256"
            },
            {
              "internalType": "uint256",
              "name": "ExpiryDate",
              "type": "uint256"
            },
            {
              "internalType": "enum Production.BloodStatus",
              "name": "_status",
              "type": "uint8"
            }
          ],
          "internalType": "struct Production.BloodUnit",
          "name": "",
          "type": "tuple"
        }
      ],
      "stateMutability": "nonpayable",
      "type": "function"
    },
    {
      "inputs": [
        {
          "internalType": "uint256",
          "name": "_index",
          "type": "uint256"
        }
      ],
      "name": "getiD",
      "outputs": [
        {
          "internalType": "uint256",
          "name": "",
          "type": "uint256"
        }
      ],
      "stateMutability": "view",
      "type": "function",
      "constant": true
    },
    {
      "inputs": [
        {
          "internalType": "uint256",
          "name": "_index",
          "type": "uint256"
        }
      ],
      "name": "getState",
      "outputs": [
        {
          "internalType": "enum Production.BloodStatus",
          "name": "",
          "type": "uint8"
        }
      ],
      "stateMutability": "view",
      "type": "function",
      "constant": true
    },
    {
      "inputs": [
        {
          "internalType": "address",
          "name": "_transporter",
          "type": "address"
        }
      ],
      "name": "AssignTransporter",
      "outputs": [],
      "stateMutability": "nonpayable",
      "type": "function"
    },
    {
      "inputs": [],
      "name": "Start_Delivery",
      "outputs": [],
      "stateMutability": "nonpayable",
      "type": "function"
    },
    {
      "inputs": [],
      "name": "End_Delivery",
      "outputs": [],
      "stateMutability": "nonpayable",
      "type": "function"
    },
    {
      "inputs": [],
      "name": "BloodReceived",
      "outputs": [],
      "stateMutability": "nonpayable",
      "type": "function"
    },
    {
      "inputs": [
        {
          "internalType": "uint256",
          "name": "_amount",
          "type": "uint256"
        },
        {
          "internalType": "uint256",
          "name": "_expiry",
          "type": "uint256"
        },
        {
          "internalType": "string",
          "name": "_type",
          "type": "string"
        }
      ],
      "name": "CreateBloodUnit",
      "outputs": [],
      "stateMutability": "nonpayable",
      "type": "function"
    }
  ],
  "bytecode": "0x60806040526000600455600060065534801561001a57600080fd5b50336000806101000a81548173ffffffffffffffffffffffffffffffffffffffff021916908373ffffffffffffffffffffffffffffffffffffffff16021790555033600160006101000a81548173ffffffffffffffffffffffffffffffffffffffff021916908373ffffffffffffffffffffffffffffffffffffffff160217905550611a1b806100ab6000396000f3fe608060405234801561001057600080fd5b50600436106100cf5760003560e01c806372c232511161008c578063c1e1677e11610066578063c1e1677e14610204578063d362dc0c1461020e578063e5fba6cc1461022a578063fb4c4b3a1461025e576100cf565b806372c23251146101aa57806377e12154146101de578063be5dbb43146101fa576100cf565b806329c2a877146100d457806341b4d3e11461010457806342294e601461012257806344c9af28146101525780634e805919146101825780636b37d3621461018c575b600080fd5b6100ee60048036038101906100e99190610d89565b61028e565b6040516100fb9190610df7565b60405180910390f35b61010c6102cd565b6040516101199190610df7565b60405180910390f35b61013c60048036038101906101379190610d89565b6102f7565b6040516101499190610e21565b60405180910390f35b61016c60048036038101906101679190610d89565b610317565b6040516101799190610eb3565b60405180910390f35b61018a610344565b005b61019461046e565b6040516101a19190610df7565b60405180910390f35b6101c460048036038101906101bf9190610d89565b610497565b6040516101d5959493929190610f5e565b60405180910390f35b6101f860048036038101906101f39190610fe4565b610562565b005b610202610656565b005b61020c610812565b005b61022860048036038101906102239190611146565b610a0d565b005b610244600480360381019061023f9190610d89565b610a8a565b604051610255959493929190610f5e565b60405180910390f35b61027860048036038101906102739190610d89565b610b55565b6040516102859190611293565b60405180910390f35b6003818154811061029e57600080fd5b906000526020600020016000915054906101000a900473ffffffffffffffffffffffffffffffffffffffff1681565b6000600160009054906101000a900473ffffffffffffffffffffffffffffffffffffffff16905090565b600060026000838152602001908152602001600020600001549050919050565b60006002600083815260200190815260200160002060040160009054906101000a900460ff169050919050565b60005b60045481101561046b576004600581111561036557610364610e3c565b5b60026000600454815260200190815260200160002060040160009054906101000a900460ff16600581111561039d5761039c610e3c565b5b0361041d57600560026000600454815260200190815260200160002060040160006101000a81548160ff021916908360058111156103de576103dd610e3c565b5b02179055507feb7115a99b4ff3975015662e8f8d0434763af973215290ec6d1f8068233ff79f60405161041090611301565b60405180910390a1610458565b6040517f08c379a000000000000000000000000000000000000000000000000000000000815260040161044f9061136d565b60405180910390fd5b8080610463906113bc565b915050610347565b50565b60008060009054906101000a900473ffffffffffffffffffffffffffffffffffffffff16905090565b60056020528060005260406000206000915090508060000154908060010180546104c090611433565b80601f01602080910402602001604051908101604052809291908181526020018280546104ec90611433565b80156105395780601f1061050e57610100808354040283529160200191610539565b820191906000526020600020905b81548152906001019060200180831161051c57829003601f168201915b5050505050908060020154908060030154908060040160009054906101000a900460ff16905085565b60008054906101000a900473ffffffffffffffffffffffffffffffffffffffff1673ffffffffffffffffffffffffffffffffffffffff163373ffffffffffffffffffffffffffffffffffffffff16146105f0576040517f08c379a00000000000000000000000000000000000000000000000000000000081526004016105e7906114b0565b60405180910390fd5b6003819080600181540180825580915050600190039060005260206000200160009091909190916101000a81548173ffffffffffffffffffffffffffffffffffffffff021916908373ffffffffffffffffffffffffffffffffffffffff16021790555050565b60005b60045481101561080f576001600581111561067757610676610e3c565b5b6002600083815260200190815260200160002060040160009054906101000a900460ff1660058111156106ad576106ac610e3c565b5b036107c15760005b6003805490508110156107bb573373ffffffffffffffffffffffffffffffffffffffff16600382815481106106ed576106ec6114d0565b5b9060005260206000200160009054906101000a900473ffffffffffffffffffffffffffffffffffffffff1673ffffffffffffffffffffffffffffffffffffffff16036107a85760036002600084815260200190815260200160002060040160006101000a81548160ff0219169083600581111561076d5761076c610e3c565b5b02179055507ffbb1b4e9e7dec27e981d312b01f33e3fd2b2b3e463427e84d7c3a1f5b02bd87c60405161079f9061154b565b60405180910390a15b80806107b3906113bc565b9150506106b5565b506107fc565b6040517f08c379a00000000000000000000000000000000000000000000000000000000081526004016107f3906115dd565b60405180910390fd5b8080610807906113bc565b915050610659565b50565b60005b600454811015610a0a576003600581111561083357610832610e3c565b5b6002600083815260200190815260200160002060040160009054906101000a900460ff16600581111561086957610868610e3c565b5b036109bc5760005b6003805490508110156109b6573373ffffffffffffffffffffffffffffffffffffffff16600382815481106108a9576108a86114d0565b5b9060005260206000200160009054906101000a900473ffffffffffffffffffffffffffffffffffffffff1673ffffffffffffffffffffffffffffffffffffffff16036109685760046002600084815260200190815260200160002060040160006101000a81548160ff0219169083600581111561092957610928610e3c565b5b02179055507fd231e56c343322f0d3d33b9249d2cf348f94f8fb054cc595f2f8de12bb48b65960405161095b90611649565b60405180910390a16109a3565b6040517f08c379a000000000000000000000000000000000000000000000000000000000815260040161099a906116b5565b60405180910390fd5b80806109ae906113bc565b915050610871565b506109f7565b6040517f08c379a00000000000000000000000000000000000000000000000000000000081526004016109ee90611747565b60405180910390fd5b8080610a02906113bc565b915050610815565b50565b82600260006006548152602001908152602001600020600201819055508160026000600654815260200190815260200160002060030181905550806002600060065481526020019081526020016000206001019081610a6c9190611913565b5060066000815480929190610a80906113bc565b9190505550505050565b6002602052806000526040600020600091509050806000015490806001018054610ab390611433565b80601f0160208091040260200160405190810160405280929190818152602001828054610adf90611433565b8015610b2c5780601f10610b0157610100808354040283529160200191610b2c565b820191906000526020600020905b815481529060010190602001808311610b0f57829003601f168201915b5050505050908060020154908060030154908060040160009054906101000a900460ff16905085565b610b5d610cfe565b60008054906101000a900473ffffffffffffffffffffffffffffffffffffffff1673ffffffffffffffffffffffffffffffffffffffff163373ffffffffffffffffffffffffffffffffffffffff1614610beb576040517f08c379a0000000000000000000000000000000000000000000000000000000008152600401610be2906114b0565b60405180910390fd5b60006040518060a001604052808481526020016040518060400160405280600781526020017f556e6b6e6f776e000000000000000000000000000000000000000000000000008152508152602001600081526020016000815260200160016005811115610c5b57610c5a610e3c565b5b815250905080600260006004548152602001908152602001600020600082015181600001556020820151816001019081610c959190611913565b50604082015181600201556060820151816003015560808201518160040160006101000a81548160ff02191690836005811115610cd557610cd4610e3c565b5b021790555090505060046000815480929190610cf0906113bc565b919050555080915050919050565b6040518060a001604052806000815260200160608152602001600081526020016000815260200160006005811115610d3957610d38610e3c565b5b81525090565b6000604051905090565b600080fd5b600080fd5b6000819050919050565b610d6681610d53565b8114610d7157600080fd5b50565b600081359050610d8381610d5d565b92915050565b600060208284031215610d9f57610d9e610d49565b5b6000610dad84828501610d74565b91505092915050565b600073ffffffffffffffffffffffffffffffffffffffff82169050919050565b6000610de182610db6565b9050919050565b610df181610dd6565b82525050565b6000602082019050610e0c6000830184610de8565b92915050565b610e1b81610d53565b82525050565b6000602082019050610e366000830184610e12565b92915050565b7f4e487b7100000000000000000000000000000000000000000000000000000000600052602160045260246000fd5b60068110610e7c57610e7b610e3c565b5b50565b6000819050610e8d82610e6b565b919050565b6000610e9d82610e7f565b9050919050565b610ead81610e92565b82525050565b6000602082019050610ec86000830184610ea4565b92915050565b600081519050919050565b600082825260208201905092915050565b60005b83811015610f08578082015181840152602081019050610eed565b60008484015250505050565b6000601f19601f8301169050919050565b6000610f3082610ece565b610f3a8185610ed9565b9350610f4a818560208601610eea565b610f5381610f14565b840191505092915050565b600060a082019050610f736000830188610e12565b8181036020830152610f858187610f25565b9050610f946040830186610e12565b610fa16060830185610e12565b610fae6080830184610ea4565b9695505050505050565b610fc181610dd6565b8114610fcc57600080fd5b50565b600081359050610fde81610fb8565b92915050565b600060208284031215610ffa57610ff9610d49565b5b600061100884828501610fcf565b91505092915050565b600080fd5b600080fd5b7f4e487b7100000000000000000000000000000000000000000000000000000000600052604160045260246000fd5b61105382610f14565b810181811067ffffffffffffffff821117156110725761107161101b565b5b80604052505050565b6000611085610d3f565b9050611091828261104a565b919050565b600067ffffffffffffffff8211156110b1576110b061101b565b5b6110ba82610f14565b9050602081019050919050565b82818337600083830152505050565b60006110e96110e484611096565b61107b565b90508281526020810184848401111561110557611104611016565b5b6111108482856110c7565b509392505050565b600082601f83011261112d5761112c611011565b5b813561113d8482602086016110d6565b91505092915050565b60008060006060848603121561115f5761115e610d49565b5b600061116d86828701610d74565b935050602061117e86828701610d74565b925050604084013567ffffffffffffffff81111561119f5761119e610d4e565b5b6111ab86828701611118565b9150509250925092565b6111be81610d53565b82525050565b600082825260208201905092915050565b60006111e082610ece565b6111ea81856111c4565b93506111fa818560208601610eea565b61120381610f14565b840191505092915050565b61121781610e92565b82525050565b600060a08301600083015161123560008601826111b5565b506020830151848203602086015261124d82826111d5565b915050604083015161126260408601826111b5565b50606083015161127560608601826111b5565b506080830151611288608086018261120e565b508091505092915050565b600060208201905081810360008301526112ad818461121d565b905092915050565b7f5265636569766564000000000000000000000000000000000000000000000000600082015250565b60006112eb600883610ed9565b91506112f6826112b5565b602082019050919050565b6000602082019050818103600083015261131a816112de565b9050919050565b7f74686520426c6f6f6420697320616c7265616479207265636569766564000000600082015250565b6000611357601d83610ed9565b915061136282611321565b602082019050919050565b600060208201905081810360008301526113868161134a565b9050919050565b7f4e487b7100000000000000000000000000000000000000000000000000000000600052601160045260246000fd5b60006113c782610d53565b91507fffffffffffffffffffffffffffffffffffffffffffffffffffffffffffffffff82036113f9576113f861138d565b5b600182019050919050565b7f4e487b7100000000000000000000000000000000000000000000000000000000600052602260045260246000fd5b6000600282049050600182168061144b57607f821691505b60208210810361145e5761145d611404565b5b50919050565b7f4e6f742070686c65626f746f6d69737400000000000000000000000000000000600082015250565b600061149a601083610ed9565b91506114a582611464565b602082019050919050565b600060208201905081810360008301526114c98161148d565b9050919050565b7f4e487b7100000000000000000000000000000000000000000000000000000000600052603260045260246000fd5b7f4f6e20547261636b000000000000000000000000000000000000000000000000600082015250565b6000611535600883610ed9565b9150611540826114ff565b602082019050919050565b6000602082019050818103600083015261156481611528565b9050919050565b7f74686520426c6f6f64206973206e6f7420726561647920666f722044656c696560008201527f7665727900000000000000000000000000000000000000000000000000000000602082015250565b60006115c7602483610ed9565b91506115d28261156b565b604082019050919050565b600060208201905081810360008301526115f6816115ba565b9050919050565b7f456e6444656c6976657279000000000000000000000000000000000000000000600082015250565b6000611633600b83610ed9565b915061163e826115fd565b602082019050919050565b6000602082019050818103600083015261166281611626565b9050919050565b7f4e6f7420746865207269676874205472616e73706f7274657200000000000000600082015250565b600061169f601983610ed9565b91506116aa82611669565b602082019050919050565b600060208201905081810360008301526116ce81611692565b9050919050565b7f74686520426c6f6f642064656c697665727920697320616c726561647920646f60008201527f6e65000000000000000000000000000000000000000000000000000000000000602082015250565b6000611731602283610ed9565b915061173c826116d5565b604082019050919050565b6000602082019050818103600083015261176081611724565b9050919050565b60008190508160005260206000209050919050565b60006020601f8301049050919050565b600082821b905092915050565b6000600883026117c97fffffffffffffffffffffffffffffffffffffffffffffffffffffffffffffffff8261178c565b6117d3868361178c565b95508019841693508086168417925050509392505050565b6000819050919050565b600061181061180b61180684610d53565b6117eb565b610d53565b9050919050565b6000819050919050565b61182a836117f5565b61183e61183682611817565b848454611799565b825550505050565b600090565b611853611846565b61185e818484611821565b505050565b5b818110156118825761187760008261184b565b600181019050611864565b5050565b601f8211156118c75761189881611767565b6118a18461177c565b810160208510156118b0578190505b6118c46118bc8561177c565b830182611863565b50505b505050565b600082821c905092915050565b60006118ea600019846008026118cc565b1980831691505092915050565b600061190383836118d9565b9150826002028217905092915050565b61191c82610ece565b67ffffffffffffffff8111156119355761193461101b565b5b61193f8254611433565b61194a828285611886565b600060209050601f83116001811461197d576000841561196b578287015190505b61197585826118f7565b8655506119dd565b601f19841661198b86611767565b60005b828110156119b35784890151825560018201915060208501945060208101905061198e565b868310156119d057848901516119cc601f8916826118d9565b8355505b6001600288020188555050505b50505050505056fea26469706673582212207effe8a5570fe57b6251d45c97f681bbb544b56873d57283775abeb9f06c7f3e64736f6c63430008110033",
  "immutableReferences": {},
  "source": "pragma solidity ^0.8.17;\r\nimport './Technician.sol';\r\nimport './Phlebotomist.sol';\r\nimport './Transporter.sol';\r\n\r\n\r\ncontract Production is   Phlebotomist, Transporter {\r\n    enum BloodStatus {NotReady, ReadyForDelivery, StartDelivery, OnTrack, EndDelivery,Received}\r\n    struct BloodUnit {\r\n        uint DonnerId;\r\n        string Typee;\r\n        uint Amount;\r\n        uint ExpiryDate;\r\n        Production.BloodStatus  _status; \r\n        \r\n    }\r\n    event ready(string _etat);\r\n    event OnTrack(string _etat);\r\n    event EndDelivery(string _etat);\r\n    event Received(string _etat);\r\n    mapping (uint => BloodUnit) public units;\r\n    address [] public transporters;\r\n    uint bloodCount=0;\r\n    \r\n    \r\n     function CollectBloodUnit (uint donner )public isPhlebotomist returns (BloodUnit memory) {\r\n         //BloodUnit  B0=BloodUnit(0,0,0,0, BloodStatus.NotReady );\r\n         //B0._status=BloodStatus.NotReady;\r\n         BloodUnit memory B0= BloodUnit({\r\n            DonnerId: donner,\r\n            Typee: \"Unknown\" ,\r\n            Amount : 0,\r\n            ExpiryDate : 0 ,\r\n            _status : BloodStatus.ReadyForDelivery\r\n\r\n\r\n         });\r\n            units[bloodCount]= B0;\r\n            bloodCount++;\r\n            return B0;\r\n                 \r\n     }\r\n     function getiD (uint _index) public view returns (uint){\r\n        return units[_index].DonnerId;\r\n     }\r\n     function getState(uint _index) public view returns(BloodStatus){\r\n        return units[_index]._status;\r\n     }\r\n\r\n     function AssignTransporter(address _transporter) public isPhlebotomist{\r\n         //Transportation[_transporter]=B0.DonnerId;\r\n         transporters.push(_transporter);\r\n     }\r\n     \r\n     \r\n     function Start_Delivery() public {\r\n        \r\n        for (uint j=0;j<bloodCount;j++){\r\n            if(units[j]._status==BloodStatus.ReadyForDelivery)  {  \r\n                for (uint i = 0; i < transporters.length; i++){\r\n                     if (transporters[i] == msg.sender){\r\n                        units[j]._status=BloodStatus.OnTrack;\r\n                         emit OnTrack(\"On Track\");\r\n                     }\r\n                    \r\n            \r\n                             \r\n                }\r\n                //revert('Not the right Transporter');\r\n         }\r\n         else {\r\n            revert('the Blood is not ready for Delievery');\r\n        }}}\r\n\r\n    function End_Delivery() public {\r\n        for (uint j=0; j<bloodCount;j++){\r\n        if(units[j]._status==BloodStatus.OnTrack)  {  \r\n         for (uint i = 0; i < transporters.length; i++){\r\n            if (transporters[i] == msg.sender){\r\n                units[j]._status=BloodStatus.EndDelivery;\r\n\r\n                emit EndDelivery(\"EndDelivery\");\r\n            }\r\n            else {\r\n                revert('Not the right Transporter');\r\n            }\r\n         }}\r\n         else {\r\n            revert('the Blood delivery is already done');\r\n        }}}\r\n        //bloodCount=0;} \r\n\r\n    function BloodReceived() public {\r\n        for(uint j=0; j<bloodCount;j++){\r\n         if (units[bloodCount]._status==BloodStatus.EndDelivery) {\r\n            units[bloodCount]._status=BloodStatus.Received;\r\n             \r\n             emit Received(\"Received\");           \r\n              }\r\n        else {\r\n            revert('the Blood is already received');\r\n        }\r\n\r\n\r\n    }}\r\n    mapping (uint => BloodUnit) public Analyzed;\r\n    uint analyzedCount=0;\r\n    function CreateBloodUnit(uint _amount, uint _expiry ,string memory _type) public{\r\n        units[analyzedCount].Amount=_amount;\r\n        units[analyzedCount].ExpiryDate=_expiry;\r\n        units[analyzedCount].Typee=_type;\r\n        analyzedCount++;\r\n\r\n\r\n\r\n    }\r\n\r\n\r\n\r\n        \r\n\r\n        \r\n         \r\n\r\n      \r\n\r\n         \r\n\r\n         \r\n     \r\n     \r\n\r\n   \r\n    \r\n}",
  "sourcePath": "C:\\Users\\jaoua\\Documents\\truffle\\contracts\\Production.sol",
  "compiler": {
    "name": "solc",
    "version": "0.8.17+commit.8df45f5f.Emscripten.clang"
  },
  "schemaVersion": "3.4.11",
  "updatedAt": "2023-03-23T16:14:38.529Z",
  "networkType": "ethereum",
  "devdoc": {
    "kind": "dev",
    "methods": {},
    "version": 1
  },
  "userdoc": {
    "kind": "user",
    "methods": {},
    "version": 1
  }
}